{
  "contracts/DefiHorse.sol": {
    "HorseToken": {
      "abi": [
        {
          "inputs": [],
          "stateMutability": "nonpayable",
          "type": "constructor"
        },
        {
          "anonymous": false,
          "inputs": [
            {
              "indexed": true,
              "internalType": "address",
              "name": "owner",
              "type": "address"
            },
            {
              "indexed": true,
              "internalType": "address",
              "name": "spender",
              "type": "address"
            },
            {
              "indexed": false,
              "internalType": "uint256",
              "name": "value",
              "type": "uint256"
            }
          ],
          "name": "Approval",
          "type": "event"
        },
        {
          "anonymous": false,
          "inputs": [
            {
              "indexed": true,
              "internalType": "address",
              "name": "previousOwner",
              "type": "address"
            },
            {
              "indexed": true,
              "internalType": "address",
              "name": "newOwner",
              "type": "address"
            }
          ],
          "name": "OwnershipTransferred",
          "type": "event"
        },
        {
          "anonymous": false,
          "inputs": [
            {
              "indexed": false,
              "internalType": "address",
              "name": "account",
              "type": "address"
            }
          ],
          "name": "Paused",
          "type": "event"
        },
        {
          "anonymous": false,
          "inputs": [
            {
              "indexed": false,
              "internalType": "uint256",
              "name": "id",
              "type": "uint256"
            }
          ],
          "name": "Snapshot",
          "type": "event"
        },
        {
          "anonymous": false,
          "inputs": [
            {
              "indexed": true,
              "internalType": "address",
              "name": "from",
              "type": "address"
            },
            {
              "indexed": true,
              "internalType": "address",
              "name": "to",
              "type": "address"
            },
            {
              "indexed": false,
              "internalType": "uint256",
              "name": "value",
              "type": "uint256"
            }
          ],
          "name": "Transfer",
          "type": "event"
        },
        {
          "anonymous": false,
          "inputs": [
            {
              "indexed": false,
              "internalType": "address",
              "name": "account",
              "type": "address"
            }
          ],
          "name": "Unpaused",
          "type": "event"
        },
        {
          "inputs": [],
          "name": "_taxFee",
          "outputs": [
            {
              "internalType": "uint256",
              "name": "",
              "type": "uint256"
            }
          ],
          "stateMutability": "view",
          "type": "function"
        },
        {
          "inputs": [
            {
              "internalType": "address",
              "name": "owner",
              "type": "address"
            },
            {
              "internalType": "address",
              "name": "spender",
              "type": "address"
            }
          ],
          "name": "allowance",
          "outputs": [
            {
              "internalType": "uint256",
              "name": "",
              "type": "uint256"
            }
          ],
          "stateMutability": "view",
          "type": "function"
        },
        {
          "inputs": [
            {
              "internalType": "address",
              "name": "spender",
              "type": "address"
            },
            {
              "internalType": "uint256",
              "name": "amount",
              "type": "uint256"
            }
          ],
          "name": "approve",
          "outputs": [
            {
              "internalType": "bool",
              "name": "",
              "type": "bool"
            }
          ],
          "stateMutability": "nonpayable",
          "type": "function"
        },
        {
          "inputs": [
            {
              "internalType": "address",
              "name": "account",
              "type": "address"
            }
          ],
          "name": "balanceOf",
          "outputs": [
            {
              "internalType": "uint256",
              "name": "",
              "type": "uint256"
            }
          ],
          "stateMutability": "view",
          "type": "function"
        },
        {
          "inputs": [
            {
              "internalType": "address",
              "name": "account",
              "type": "address"
            },
            {
              "internalType": "uint256",
              "name": "snapshotId",
              "type": "uint256"
            }
          ],
          "name": "balanceOfAt",
          "outputs": [
            {
              "internalType": "uint256",
              "name": "",
              "type": "uint256"
            }
          ],
          "stateMutability": "view",
          "type": "function"
        },
        {
          "inputs": [
            {
              "internalType": "uint256",
              "name": "amount",
              "type": "uint256"
            }
          ],
          "name": "burn",
          "outputs": [],
          "stateMutability": "nonpayable",
          "type": "function"
        },
        {
          "inputs": [
            {
              "internalType": "address",
              "name": "account",
              "type": "address"
            },
            {
              "internalType": "uint256",
              "name": "amount",
              "type": "uint256"
            }
          ],
          "name": "burnFrom",
          "outputs": [],
          "stateMutability": "nonpayable",
          "type": "function"
        },
        {
          "inputs": [],
          "name": "decimals",
          "outputs": [
            {
              "internalType": "uint8",
              "name": "",
              "type": "uint8"
            }
          ],
          "stateMutability": "view",
          "type": "function"
        },
        {
          "inputs": [
            {
              "internalType": "address",
              "name": "spender",
              "type": "address"
            },
            {
              "internalType": "uint256",
              "name": "subtractedValue",
              "type": "uint256"
            }
          ],
          "name": "decreaseAllowance",
          "outputs": [
            {
              "internalType": "bool",
              "name": "",
              "type": "bool"
            }
          ],
          "stateMutability": "nonpayable",
          "type": "function"
        },
        {
          "inputs": [
            {
              "internalType": "address",
              "name": "spender",
              "type": "address"
            },
            {
              "internalType": "uint256",
              "name": "addedValue",
              "type": "uint256"
            }
          ],
          "name": "increaseAllowance",
          "outputs": [
            {
              "internalType": "bool",
              "name": "",
              "type": "bool"
            }
          ],
          "stateMutability": "nonpayable",
          "type": "function"
        },
        {
          "inputs": [
            {
              "internalType": "address",
              "name": "to",
              "type": "address"
            },
            {
              "internalType": "uint256",
              "name": "amount",
              "type": "uint256"
            }
          ],
          "name": "mint",
          "outputs": [],
          "stateMutability": "nonpayable",
          "type": "function"
        },
        {
          "inputs": [],
          "name": "name",
          "outputs": [
            {
              "internalType": "string",
              "name": "",
              "type": "string"
            }
          ],
          "stateMutability": "view",
          "type": "function"
        },
        {
          "inputs": [],
          "name": "owner",
          "outputs": [
            {
              "internalType": "address",
              "name": "",
              "type": "address"
            }
          ],
          "stateMutability": "view",
          "type": "function"
        },
        {
          "inputs": [],
          "name": "pause",
          "outputs": [],
          "stateMutability": "nonpayable",
          "type": "function"
        },
        {
          "inputs": [],
          "name": "paused",
          "outputs": [
            {
              "internalType": "bool",
              "name": "",
              "type": "bool"
            }
          ],
          "stateMutability": "view",
          "type": "function"
        },
        {
          "inputs": [],
          "name": "renounceOwnership",
          "outputs": [],
          "stateMutability": "nonpayable",
          "type": "function"
        },
        {
          "inputs": [
            {
              "internalType": "address",
              "name": "taxAddress",
              "type": "address"
            }
          ],
          "name": "setTaxAddress",
          "outputs": [],
          "stateMutability": "nonpayable",
          "type": "function"
        },
        {
          "inputs": [
            {
              "internalType": "uint256",
              "name": "taxFee",
              "type": "uint256"
            }
          ],
          "name": "setTaxFeePercent",
          "outputs": [],
          "stateMutability": "nonpayable",
          "type": "function"
        },
        {
          "inputs": [],
          "name": "snapshot",
          "outputs": [],
          "stateMutability": "nonpayable",
          "type": "function"
        },
        {
          "inputs": [],
          "name": "symbol",
          "outputs": [
            {
              "internalType": "string",
              "name": "",
              "type": "string"
            }
          ],
          "stateMutability": "view",
          "type": "function"
        },
        {
          "inputs": [],
          "name": "totalSupply",
          "outputs": [
            {
              "internalType": "uint256",
              "name": "",
              "type": "uint256"
            }
          ],
          "stateMutability": "view",
          "type": "function"
        },
        {
          "inputs": [
            {
              "internalType": "uint256",
              "name": "snapshotId",
              "type": "uint256"
            }
          ],
          "name": "totalSupplyAt",
          "outputs": [
            {
              "internalType": "uint256",
              "name": "",
              "type": "uint256"
            }
          ],
          "stateMutability": "view",
          "type": "function"
        },
        {
          "inputs": [
            {
              "internalType": "address",
              "name": "recipient",
              "type": "address"
            },
            {
              "internalType": "uint256",
              "name": "amount",
              "type": "uint256"
            }
          ],
          "name": "transfer",
          "outputs": [
            {
              "internalType": "bool",
              "name": "",
              "type": "bool"
            }
          ],
          "stateMutability": "nonpayable",
          "type": "function"
        },
        {
          "inputs": [
            {
              "internalType": "address",
              "name": "sender",
              "type": "address"
            },
            {
              "internalType": "address",
              "name": "recipient",
              "type": "address"
            },
            {
              "internalType": "uint256",
              "name": "amount",
              "type": "uint256"
            }
          ],
          "name": "transferFrom",
          "outputs": [
            {
              "internalType": "bool",
              "name": "",
              "type": "bool"
            }
          ],
          "stateMutability": "nonpayable",
          "type": "function"
        },
        {
          "inputs": [
            {
              "internalType": "address",
              "name": "newOwner",
              "type": "address"
            }
          ],
          "name": "transferOwnership",
          "outputs": [],
          "stateMutability": "nonpayable",
          "type": "function"
        },
        {
          "inputs": [],
          "name": "unpause",
          "outputs": [],
          "stateMutability": "nonpayable",
          "type": "function"
        }
      ],
      "evm": {
        "bytecode": {
          "linkReferences": {},
          "object": "60806040526001600a55600b80546001600160a01b0319167393a364bca26f754dabf95fc5ac3cb62196b655901790553480156200003c57600080fd5b506040518060400160405280600981526020016844656669486f72736560b81b815250604051806040016040528060038152602001620888c960eb1b81525081600390805190602001906200009392919062000459565b508051620000a990600490602084019062000459565b505050620000c6620000c06200010260201b60201c565b62000106565b6009805460ff60a01b19169055620000fc33620000e66012600a62000567565b620000f6906327d0df006200065f565b62000158565b620006ee565b3390565b600980546001600160a01b038381166001600160a01b0319831681179093556040519116919082907f8be0079c531659141344cd1fd0a4f28419497f9722a3daafe3b4186f6b6457e090600090a35050565b6001600160a01b038216620001b45760405162461bcd60e51b815260206004820152601f60248201527f45524332303a206d696e7420746f20746865207a65726f20616464726573730060448201526064015b60405180910390fd5b620001c2600083836200024f565b8060026000828254620001d69190620004ff565b90915550506001600160a01b0382166000908152602081905260408120805483929062000205908490620004ff565b90915550506040518181526001600160a01b038316906000907fddf252ad1be2c89b69c2b068fc378daa952ba7f163c4a11628f55a4df523b3ef9060200160405180910390a35050565b62000263600954600160a01b900460ff1690565b15620002a55760405162461bcd60e51b815260206004820152601060248201526f14185d5cd8589b194e881c185d5cd95960821b6044820152606401620001ab565b620002bd838383620002c260201b620009101760201c565b505050565b620002da838383620002bd60201b620006e31760201c565b6001600160a01b0383166200030457620002f4826200032f565b620002fe62000360565b620002bd565b6001600160a01b0382166200031e57620002f4836200032f565b62000329836200032f565b620002bd825b6001600160a01b03811660009081526005602052604090206200035d90620003578362000372565b62000391565b50565b6200037060066200035760025490565b565b6001600160a01b0381166000908152602081905260409020545b919050565b60006200039d620003e0565b905080620003ab84620003fe565b1015620002bd578254600180820185556000858152602080822090930193909355938401805494850181558252902090910155565b6000620003f960086200045560201b6200095d1760201c565b905090565b805460009062000411575060006200038c565b81548290620004239060019062000681565b815481106200044257634e487b7160e01b600052603260045260246000fd5b906000526020600020015490506200038c565b5490565b82805462000467906200069b565b90600052602060002090601f0160209004810192826200048b5760008555620004d6565b82601f10620004a657805160ff1916838001178555620004d6565b82800160010185558215620004d6579182015b82811115620004d6578251825591602001919060010190620004b9565b50620004e4929150620004e8565b5090565b5b80821115620004e45760008155600101620004e9565b60008219821115620005155762000515620006d8565b500190565b80825b60018086116200052e57506200055e565b818704821115620005435762000543620006d8565b808616156200055157918102915b9490941c9380026200051d565b94509492505050565b60006200057b60001960ff85168462000582565b9392505050565b60008262000593575060016200057b565b81620005a2575060006200057b565b8160018114620005bb5760028114620005c657620005fa565b60019150506200057b565b60ff841115620005da57620005da620006d8565b6001841b915084821115620005f357620005f3620006d8565b506200057b565b5060208310610133831016604e8410600b841016171562000632575081810a838111156200062c576200062c620006d8565b6200057b565b6200064184848460016200051a565b808604821115620006565762000656620006d8565b02949350505050565b60008160001904831182151516156200067c576200067c620006d8565b500290565b600082821015620006965762000696620006d8565b500390565b600281046001821680620006b057607f821691505b60208210811415620006d257634e487b7160e01b600052602260045260246000fd5b50919050565b634e487b7160e01b600052601160045260246000fd5b6116e780620006fe6000396000f3fe608060405234801561001057600080fd5b506004361061018e5760003560e01c806370a08231116100de5780639711715a11610097578063a457c2d711610071578063a457c2d714610314578063a9059cbb14610327578063dd62ed3e1461033a578063f2fde38b146103735761018e565b80639711715a146102e6578063981b24d0146102ee578063a1883d26146103015761018e565b806370a082311461028d578063715018a6146102a057806379cc6790146102a85780638456cb59146102bb5780638da5cb5b146102c357806395d89b41146102de5761018e565b8063395093511161014b57806340c10f191161012557806340c10f191461024157806342966c68146102545780634ee2cd7e146102675780635c975abb1461027a5761018e565b8063395093511461021d5780633b124fe7146102305780633f4ba83a146102395761018e565b8063061c82d01461019357806306fdde03146101a8578063095ea7b3146101c657806318160ddd146101e957806323b872dd146101fb578063313ce5671461020e575b600080fd5b6101a66101a1366004611528565b610386565b005b6101b06103be565b6040516101bd9190611540565b60405180910390f35b6101d96101d43660046114ff565b610450565b60405190151581526020016101bd565b6002545b6040519081526020016101bd565b6101d96102093660046114c4565b610467565b604051601281526020016101bd565b6101d961022b3660046114ff565b610511565b6101ed600a5481565b6101a661054d565b6101a661024f3660046114ff565b610581565b6101a6610262366004611528565b6105b9565b6101ed6102753660046114ff565b6105c6565b6101d9600954600160a01b900460ff1690565b6101ed61029b366004611478565b61060f565b6101a661062e565b6101a66102b63660046114ff565b610662565b6101a66106e8565b6009546040516001600160a01b0390911681526020016101bd565b6101b061071a565b6101a6610729565b6101ed6102fc366004611528565b61075b565b6101a661030f366004611478565b610786565b6101d96103223660046114ff565b6107d2565b6101d96103353660046114ff565b61086b565b6101ed610348366004611492565b6001600160a01b03918216600090815260016020908152604080832093909416825291909152205490565b6101a6610381366004611478565b610878565b6009546001600160a01b031633146103b95760405162461bcd60e51b81526004016103b0906115bd565b60405180910390fd5b600a55565b6060600380546103cd90611660565b80601f01602080910402602001604051908101604052809291908181526020018280546103f990611660565b80156104465780601f1061041b57610100808354040283529160200191610446565b820191906000526020600020905b81548152906001019060200180831161042957829003601f168201915b5050505050905090565b600061045d338484610961565b5060015b92915050565b6000610474848484610a85565b6001600160a01b0384166000908152600160209081526040808320338452909152902054828110156104f95760405162461bcd60e51b815260206004820152602860248201527f45524332303a207472616e7366657220616d6f756e74206578636565647320616044820152676c6c6f77616e636560c01b60648201526084016103b0565b6105068533858403610961565b506001949350505050565b3360008181526001602090815260408083206001600160a01b0387168452909152812054909161045d9185906105489086906115f2565b610961565b6009546001600160a01b031633146105775760405162461bcd60e51b81526004016103b0906115bd565b61057f610b63565b565b6009546001600160a01b031633146105ab5760405162461bcd60e51b81526004016103b0906115bd565b6105b58282610c06565b5050565b6105c33382610cf2565b50565b6001600160a01b0382166000908152600560205260408120819081906105ed908590610e4c565b9150915081610604576105ff8561060f565b610606565b805b95945050505050565b6001600160a01b0381166000908152602081905260409020545b919050565b6009546001600160a01b031633146106585760405162461bcd60e51b81526004016103b0906115bd565b61057f6000610f51565b600061066e8333610348565b9050818110156106cc5760405162461bcd60e51b8152602060048201526024808201527f45524332303a206275726e20616d6f756e74206578636565647320616c6c6f77604482015263616e636560e01b60648201526084016103b0565b6106d98333848403610961565b6106e38383610cf2565b505050565b6009546001600160a01b031633146107125760405162461bcd60e51b81526004016103b0906115bd565b61057f610fa3565b6060600480546103cd90611660565b6009546001600160a01b031633146107535760405162461bcd60e51b81526004016103b0906115bd565b6105c361100e565b600080600061076b846006610e4c565b915091508161077c5760025461077e565b805b949350505050565b6009546001600160a01b031633146107b05760405162461bcd60e51b81526004016103b0906115bd565b600b80546001600160a01b0319166001600160a01b0392909216919091179055565b3360009081526001602090815260408083206001600160a01b0386168452909152812054828110156108545760405162461bcd60e51b815260206004820152602560248201527f45524332303a2064656372656173656420616c6c6f77616e63652062656c6f77604482015264207a65726f60d81b60648201526084016103b0565b6108613385858403610961565b5060019392505050565b600061045d338484610a85565b6009546001600160a01b031633146108a25760405162461bcd60e51b81526004016103b0906115bd565b6001600160a01b0381166109075760405162461bcd60e51b815260206004820152602660248201527f4f776e61626c653a206e6577206f776e657220697320746865207a65726f206160448201526564647265737360d01b60648201526084016103b0565b6105c381610f51565b6001600160a01b0383166109345761092782611068565b61092f611092565b6106e3565b6001600160a01b03821661094b5761092783611068565b61095483611068565b6106e382611068565b5490565b6001600160a01b0383166109c35760405162461bcd60e51b8152602060048201526024808201527f45524332303a20617070726f76652066726f6d20746865207a65726f206164646044820152637265737360e01b60648201526084016103b0565b6001600160a01b038216610a245760405162461bcd60e51b815260206004820152602260248201527f45524332303a20617070726f766520746f20746865207a65726f206164647265604482015261737360f01b60648201526084016103b0565b6001600160a01b0383811660008181526001602090815260408083209487168084529482529182902085905590518481527f8c5be1e5ebec7d5bd14f71427d1e84f3dd0314c0f7b2291e5b200ac8c7c3b925910160405180910390a3505050565b610a98600954600160a01b900460ff1690565b15610ab55760405162461bcd60e51b81526004016103b090611593565b60006064600a5483610ac7919061162a565b610ad1919061160a565b90506000610adf8284611649565b9050610aeb82826115f2565b8314610b395760405162461bcd60e51b815260206004820152601960248201527f7472616e736665723a205461782076616c20696e76616c69640000000000000060448201526064016103b0565b600b54610b519086906001600160a01b0316846110a0565b610b5c8585836110a0565b5050505050565b610b76600954600160a01b900460ff1690565b610bb95760405162461bcd60e51b815260206004820152601460248201527314185d5cd8589b194e881b9bdd081c185d5cd95960621b60448201526064016103b0565b6009805460ff60a01b191690557f5db9ee0a495bf2e6ff9c91a7834c1ba4fdd244a5e8aa4e537bd38aeae4b073aa335b6040516001600160a01b03909116815260200160405180910390a1565b6001600160a01b038216610c5c5760405162461bcd60e51b815260206004820152601f60248201527f45524332303a206d696e7420746f20746865207a65726f20616464726573730060448201526064016103b0565b610c686000838361127a565b8060026000828254610c7a91906115f2565b90915550506001600160a01b03821660009081526020819052604081208054839290610ca79084906115f2565b90915550506040518181526001600160a01b038316906000907fddf252ad1be2c89b69c2b068fc378daa952ba7f163c4a11628f55a4df523b3ef9060200160405180910390a36105b5565b6001600160a01b038216610d525760405162461bcd60e51b815260206004820152602160248201527f45524332303a206275726e2066726f6d20746865207a65726f206164647265736044820152607360f81b60648201526084016103b0565b610d5e8260008361127a565b6001600160a01b03821660009081526020819052604090205481811015610dd25760405162461bcd60e51b815260206004820152602260248201527f45524332303a206275726e20616d6f756e7420657863656564732062616c616e604482015261636560f01b60648201526084016103b0565b6001600160a01b0383166000908152602081905260408120838303905560028054849290610e01908490611649565b90915550506040518281526000906001600160a01b038516907fddf252ad1be2c89b69c2b068fc378daa952ba7f163c4a11628f55a4df523b3ef9060200160405180910390a36106e3565b60008060008411610e985760405162461bcd60e51b815260206004820152601660248201527504552433230536e617073686f743a20696420697320360541b60448201526064016103b0565b610ea06112b5565b841115610eef5760405162461bcd60e51b815260206004820152601d60248201527f4552433230536e617073686f743a206e6f6e6578697374656e7420696400000060448201526064016103b0565b6000610efb84866112c5565b8454909150811415610f14576000809250925050610f4a565b6001846001018281548110610f3957634e487b7160e01b600052603260045260246000fd5b906000526020600020015492509250505b9250929050565b600980546001600160a01b038381166001600160a01b0319831681179093556040519116919082907f8be0079c531659141344cd1fd0a4f28419497f9722a3daafe3b4186f6b6457e090600090a35050565b610fb6600954600160a01b900460ff1690565b15610fd35760405162461bcd60e51b81526004016103b090611593565b6009805460ff60a01b1916600160a01b1790557f62e78cea01bee320cd4e420270b5ea74000d11b0c9f74754ebdbfc544b05a258610be93390565b600061101e600880546001019055565b60006110286112b5565b90507f8030e83b04d87bef53480e26263266d6ca66863aa8506aca6f2559d18aa1cb678160405161105b91815260200190565b60405180910390a1905090565b6001600160a01b03811660009081526005602052604090206105c39061108d8361060f565b6113a4565b61057f600661108d60025490565b6001600160a01b0383166111045760405162461bcd60e51b815260206004820152602560248201527f45524332303a207472616e736665722066726f6d20746865207a65726f206164604482015264647265737360d81b60648201526084016103b0565b6001600160a01b0382166111665760405162461bcd60e51b815260206004820152602360248201527f45524332303a207472616e7366657220746f20746865207a65726f206164647260448201526265737360e81b60648201526084016103b0565b61117183838361127a565b6001600160a01b038316600090815260208190526040902054818110156111e95760405162461bcd60e51b815260206004820152602660248201527f45524332303a207472616e7366657220616d6f756e7420657863656564732062604482015265616c616e636560d01b60648201526084016103b0565b6001600160a01b038085166000908152602081905260408082208585039055918516815290812080548492906112209084906115f2565b92505081905550826001600160a01b0316846001600160a01b03167fddf252ad1be2c89b69c2b068fc378daa952ba7f163c4a11628f55a4df523b3ef8460405161126c91815260200190565b60405180910390a350505050565b61128d600954600160a01b900460ff1690565b156112aa5760405162461bcd60e51b81526004016103b090611593565b6106e3838383610910565b60006112c060085490565b905090565b81546000906112d657506000610461565b82546000905b808210156113405760006112f083836113ee565b90508486828154811061131357634e487b7160e01b600052603260045260246000fd5b9060005260206000200154111561132c5780915061133a565b6113378160016115f2565b92505b506112dc565b60008211801561138357508385611358600185611649565b8154811061137657634e487b7160e01b600052603260045260246000fd5b9060005260206000200154145b1561139c57611393600183611649565b92505050610461565b509050610461565b60006113ae6112b5565b9050806113ba84611410565b10156106e3578254600180820185556000858152602080822090930193909355938401805494850181558252902090910155565b60006113fd600284841861160a565b611409908484166115f2565b9392505050565b805460009061142157506000610629565b8154829061143190600190611649565b8154811061144f57634e487b7160e01b600052603260045260246000fd5b90600052602060002001549050610629565b80356001600160a01b038116811461062957600080fd5b600060208284031215611489578081fd5b61140982611461565b600080604083850312156114a4578081fd5b6114ad83611461565b91506114bb60208401611461565b90509250929050565b6000806000606084860312156114d8578081fd5b6114e184611461565b92506114ef60208501611461565b9150604084013590509250925092565b60008060408385031215611511578182fd5b61151a83611461565b946020939093013593505050565b600060208284031215611539578081fd5b5035919050565b6000602080835283518082850152825b8181101561156c57858101830151858201604001528201611550565b8181111561157d5783604083870101525b50601f01601f1916929092016040019392505050565b60208082526010908201526f14185d5cd8589b194e881c185d5cd95960821b604082015260600190565b6020808252818101527f4f776e61626c653a2063616c6c6572206973206e6f7420746865206f776e6572604082015260600190565b600082198211156116055761160561169b565b500190565b60008261162557634e487b7160e01b81526012600452602481fd5b500490565b60008160001904831182151516156116445761164461169b565b500290565b60008282101561165b5761165b61169b565b500390565b60028104600182168061167457607f821691505b6020821081141561169557634e487b7160e01b600052602260045260246000fd5b50919050565b634e487b7160e01b600052601160045260246000fdfea2646970667358221220b9f8f306cf46de016106d632587c4e175de2d68d08c260b09273ddee47e5a2a064736f6c63430008020033",
          "opcodes": "PUSH1 0x80 PUSH1 0x40 MSTORE PUSH1 0x1 PUSH1 0xA SSTORE PUSH1 0xB DUP1 SLOAD PUSH1 0x1 PUSH1 0x1 PUSH1 0xA0 SHL SUB NOT AND PUSH20 0x93A364BCA26F754DABF95FC5AC3CB62196B65590 OR SWAP1 SSTORE CALLVALUE DUP1 ISZERO PUSH3 0x3C JUMPI PUSH1 0x0 DUP1 REVERT JUMPDEST POP PUSH1 0x40 MLOAD DUP1 PUSH1 0x40 ADD PUSH1 0x40 MSTORE DUP1 PUSH1 0x9 DUP2 MSTORE PUSH1 0x20 ADD PUSH9 0x44656669486F727365 PUSH1 0xB8 SHL DUP2 MSTORE POP PUSH1 0x40 MLOAD DUP1 PUSH1 0x40 ADD PUSH1 0x40 MSTORE DUP1 PUSH1 0x3 DUP2 MSTORE PUSH1 0x20 ADD PUSH3 0x888C9 PUSH1 0xEB SHL DUP2 MSTORE POP DUP2 PUSH1 0x3 SWAP1 DUP1 MLOAD SWAP1 PUSH1 0x20 ADD SWAP1 PUSH3 0x93 SWAP3 SWAP2 SWAP1 PUSH3 0x459 JUMP JUMPDEST POP DUP1 MLOAD PUSH3 0xA9 SWAP1 PUSH1 0x4 SWAP1 PUSH1 0x20 DUP5 ADD SWAP1 PUSH3 0x459 JUMP JUMPDEST POP POP POP PUSH3 0xC6 PUSH3 0xC0 PUSH3 0x102 PUSH1 0x20 SHL PUSH1 0x20 SHR JUMP JUMPDEST PUSH3 0x106 JUMP JUMPDEST PUSH1 0x9 DUP1 SLOAD PUSH1 0xFF PUSH1 0xA0 SHL NOT AND SWAP1 SSTORE PUSH3 0xFC CALLER PUSH3 0xE6 PUSH1 0x12 PUSH1 0xA PUSH3 0x567 JUMP JUMPDEST PUSH3 0xF6 SWAP1 PUSH4 0x27D0DF00 PUSH3 0x65F JUMP JUMPDEST PUSH3 0x158 JUMP JUMPDEST PUSH3 0x6EE JUMP JUMPDEST CALLER SWAP1 JUMP JUMPDEST PUSH1 0x9 DUP1 SLOAD PUSH1 0x1 PUSH1 0x1 PUSH1 0xA0 SHL SUB DUP4 DUP2 AND PUSH1 0x1 PUSH1 0x1 PUSH1 0xA0 SHL SUB NOT DUP4 AND DUP2 OR SWAP1 SWAP4 SSTORE PUSH1 0x40 MLOAD SWAP2 AND SWAP2 SWAP1 DUP3 SWAP1 PUSH32 0x8BE0079C531659141344CD1FD0A4F28419497F9722A3DAAFE3B4186F6B6457E0 SWAP1 PUSH1 0x0 SWAP1 LOG3 POP POP JUMP JUMPDEST PUSH1 0x1 PUSH1 0x1 PUSH1 0xA0 SHL SUB DUP3 AND PUSH3 0x1B4 JUMPI PUSH1 0x40 MLOAD PUSH3 0x461BCD PUSH1 0xE5 SHL DUP2 MSTORE PUSH1 0x20 PUSH1 0x4 DUP3 ADD MSTORE PUSH1 0x1F PUSH1 0x24 DUP3 ADD MSTORE PUSH32 0x45524332303A206D696E7420746F20746865207A65726F206164647265737300 PUSH1 0x44 DUP3 ADD MSTORE PUSH1 0x64 ADD JUMPDEST PUSH1 0x40 MLOAD DUP1 SWAP2 SUB SWAP1 REVERT JUMPDEST PUSH3 0x1C2 PUSH1 0x0 DUP4 DUP4 PUSH3 0x24F JUMP JUMPDEST DUP1 PUSH1 0x2 PUSH1 0x0 DUP3 DUP3 SLOAD PUSH3 0x1D6 SWAP2 SWAP1 PUSH3 0x4FF JUMP JUMPDEST SWAP1 SWAP2 SSTORE POP POP PUSH1 0x1 PUSH1 0x1 PUSH1 0xA0 SHL SUB DUP3 AND PUSH1 0x0 SWAP1 DUP2 MSTORE PUSH1 0x20 DUP2 SWAP1 MSTORE PUSH1 0x40 DUP2 KECCAK256 DUP1 SLOAD DUP4 SWAP3 SWAP1 PUSH3 0x205 SWAP1 DUP5 SWAP1 PUSH3 0x4FF JUMP JUMPDEST SWAP1 SWAP2 SSTORE POP POP PUSH1 0x40 MLOAD DUP2 DUP2 MSTORE PUSH1 0x1 PUSH1 0x1 PUSH1 0xA0 SHL SUB DUP4 AND SWAP1 PUSH1 0x0 SWAP1 PUSH32 0xDDF252AD1BE2C89B69C2B068FC378DAA952BA7F163C4A11628F55A4DF523B3EF SWAP1 PUSH1 0x20 ADD PUSH1 0x40 MLOAD DUP1 SWAP2 SUB SWAP1 LOG3 POP POP JUMP JUMPDEST PUSH3 0x263 PUSH1 0x9 SLOAD PUSH1 0x1 PUSH1 0xA0 SHL SWAP1 DIV PUSH1 0xFF AND SWAP1 JUMP JUMPDEST ISZERO PUSH3 0x2A5 JUMPI PUSH1 0x40 MLOAD PUSH3 0x461BCD PUSH1 0xE5 SHL DUP2 MSTORE PUSH1 0x20 PUSH1 0x4 DUP3 ADD MSTORE PUSH1 0x10 PUSH1 0x24 DUP3 ADD MSTORE PUSH16 0x14185D5CD8589B194E881C185D5CD959 PUSH1 0x82 SHL PUSH1 0x44 DUP3 ADD MSTORE PUSH1 0x64 ADD PUSH3 0x1AB JUMP JUMPDEST PUSH3 0x2BD DUP4 DUP4 DUP4 PUSH3 0x2C2 PUSH1 0x20 SHL PUSH3 0x910 OR PUSH1 0x20 SHR JUMP JUMPDEST POP POP POP JUMP JUMPDEST PUSH3 0x2DA DUP4 DUP4 DUP4 PUSH3 0x2BD PUSH1 0x20 SHL PUSH3 0x6E3 OR PUSH1 0x20 SHR JUMP JUMPDEST PUSH1 0x1 PUSH1 0x1 PUSH1 0xA0 SHL SUB DUP4 AND PUSH3 0x304 JUMPI PUSH3 0x2F4 DUP3 PUSH3 0x32F JUMP JUMPDEST PUSH3 0x2FE PUSH3 0x360 JUMP JUMPDEST PUSH3 0x2BD JUMP JUMPDEST PUSH1 0x1 PUSH1 0x1 PUSH1 0xA0 SHL SUB DUP3 AND PUSH3 0x31E JUMPI PUSH3 0x2F4 DUP4 PUSH3 0x32F JUMP JUMPDEST PUSH3 0x329 DUP4 PUSH3 0x32F JUMP JUMPDEST PUSH3 0x2BD DUP3 JUMPDEST PUSH1 0x1 PUSH1 0x1 PUSH1 0xA0 SHL SUB DUP2 AND PUSH1 0x0 SWAP1 DUP2 MSTORE PUSH1 0x5 PUSH1 0x20 MSTORE PUSH1 0x40 SWAP1 KECCAK256 PUSH3 0x35D SWAP1 PUSH3 0x357 DUP4 PUSH3 0x372 JUMP JUMPDEST PUSH3 0x391 JUMP JUMPDEST POP JUMP JUMPDEST PUSH3 0x370 PUSH1 0x6 PUSH3 0x357 PUSH1 0x2 SLOAD SWAP1 JUMP JUMPDEST JUMP JUMPDEST PUSH1 0x1 PUSH1 0x1 PUSH1 0xA0 SHL SUB DUP2 AND PUSH1 0x0 SWAP1 DUP2 MSTORE PUSH1 0x20 DUP2 SWAP1 MSTORE PUSH1 0x40 SWAP1 KECCAK256 SLOAD JUMPDEST SWAP2 SWAP1 POP JUMP JUMPDEST PUSH1 0x0 PUSH3 0x39D PUSH3 0x3E0 JUMP JUMPDEST SWAP1 POP DUP1 PUSH3 0x3AB DUP5 PUSH3 0x3FE JUMP JUMPDEST LT ISZERO PUSH3 0x2BD JUMPI DUP3 SLOAD PUSH1 0x1 DUP1 DUP3 ADD DUP6 SSTORE PUSH1 0x0 DUP6 DUP2 MSTORE PUSH1 0x20 DUP1 DUP3 KECCAK256 SWAP1 SWAP4 ADD SWAP4 SWAP1 SWAP4 SSTORE SWAP4 DUP5 ADD DUP1 SLOAD SWAP5 DUP6 ADD DUP2 SSTORE DUP3 MSTORE SWAP1 KECCAK256 SWAP1 SWAP2 ADD SSTORE JUMP JUMPDEST PUSH1 0x0 PUSH3 0x3F9 PUSH1 0x8 PUSH3 0x455 PUSH1 0x20 SHL PUSH3 0x95D OR PUSH1 0x20 SHR JUMP JUMPDEST SWAP1 POP SWAP1 JUMP JUMPDEST DUP1 SLOAD PUSH1 0x0 SWAP1 PUSH3 0x411 JUMPI POP PUSH1 0x0 PUSH3 0x38C JUMP JUMPDEST DUP2 SLOAD DUP3 SWAP1 PUSH3 0x423 SWAP1 PUSH1 0x1 SWAP1 PUSH3 0x681 JUMP JUMPDEST DUP2 SLOAD DUP2 LT PUSH3 0x442 JUMPI PUSH4 0x4E487B71 PUSH1 0xE0 SHL PUSH1 0x0 MSTORE PUSH1 0x32 PUSH1 0x4 MSTORE PUSH1 0x24 PUSH1 0x0 REVERT JUMPDEST SWAP1 PUSH1 0x0 MSTORE PUSH1 0x20 PUSH1 0x0 KECCAK256 ADD SLOAD SWAP1 POP PUSH3 0x38C JUMP JUMPDEST SLOAD SWAP1 JUMP JUMPDEST DUP3 DUP1 SLOAD PUSH3 0x467 SWAP1 PUSH3 0x69B JUMP JUMPDEST SWAP1 PUSH1 0x0 MSTORE PUSH1 0x20 PUSH1 0x0 KECCAK256 SWAP1 PUSH1 0x1F ADD PUSH1 0x20 SWAP1 DIV DUP2 ADD SWAP3 DUP3 PUSH3 0x48B JUMPI PUSH1 0x0 DUP6 SSTORE PUSH3 0x4D6 JUMP JUMPDEST DUP3 PUSH1 0x1F LT PUSH3 0x4A6 JUMPI DUP1 MLOAD PUSH1 0xFF NOT AND DUP4 DUP1 ADD OR DUP6 SSTORE PUSH3 0x4D6 JUMP JUMPDEST DUP3 DUP1 ADD PUSH1 0x1 ADD DUP6 SSTORE DUP3 ISZERO PUSH3 0x4D6 JUMPI SWAP2 DUP3 ADD JUMPDEST DUP3 DUP2 GT ISZERO PUSH3 0x4D6 JUMPI DUP3 MLOAD DUP3 SSTORE SWAP2 PUSH1 0x20 ADD SWAP2 SWAP1 PUSH1 0x1 ADD SWAP1 PUSH3 0x4B9 JUMP JUMPDEST POP PUSH3 0x4E4 SWAP3 SWAP2 POP PUSH3 0x4E8 JUMP JUMPDEST POP SWAP1 JUMP JUMPDEST JUMPDEST DUP1 DUP3 GT ISZERO PUSH3 0x4E4 JUMPI PUSH1 0x0 DUP2 SSTORE PUSH1 0x1 ADD PUSH3 0x4E9 JUMP JUMPDEST PUSH1 0x0 DUP3 NOT DUP3 GT ISZERO PUSH3 0x515 JUMPI PUSH3 0x515 PUSH3 0x6D8 JUMP JUMPDEST POP ADD SWAP1 JUMP JUMPDEST DUP1 DUP3 JUMPDEST PUSH1 0x1 DUP1 DUP7 GT PUSH3 0x52E JUMPI POP PUSH3 0x55E JUMP JUMPDEST DUP2 DUP8 DIV DUP3 GT ISZERO PUSH3 0x543 JUMPI PUSH3 0x543 PUSH3 0x6D8 JUMP JUMPDEST DUP1 DUP7 AND ISZERO PUSH3 0x551 JUMPI SWAP2 DUP2 MUL SWAP2 JUMPDEST SWAP5 SWAP1 SWAP5 SHR SWAP4 DUP1 MUL PUSH3 0x51D JUMP JUMPDEST SWAP5 POP SWAP5 SWAP3 POP POP POP JUMP JUMPDEST PUSH1 0x0 PUSH3 0x57B PUSH1 0x0 NOT PUSH1 0xFF DUP6 AND DUP5 PUSH3 0x582 JUMP JUMPDEST SWAP4 SWAP3 POP POP POP JUMP JUMPDEST PUSH1 0x0 DUP3 PUSH3 0x593 JUMPI POP PUSH1 0x1 PUSH3 0x57B JUMP JUMPDEST DUP2 PUSH3 0x5A2 JUMPI POP PUSH1 0x0 PUSH3 0x57B JUMP JUMPDEST DUP2 PUSH1 0x1 DUP2 EQ PUSH3 0x5BB JUMPI PUSH1 0x2 DUP2 EQ PUSH3 0x5C6 JUMPI PUSH3 0x5FA JUMP JUMPDEST PUSH1 0x1 SWAP2 POP POP PUSH3 0x57B JUMP JUMPDEST PUSH1 0xFF DUP5 GT ISZERO PUSH3 0x5DA JUMPI PUSH3 0x5DA PUSH3 0x6D8 JUMP JUMPDEST PUSH1 0x1 DUP5 SHL SWAP2 POP DUP5 DUP3 GT ISZERO PUSH3 0x5F3 JUMPI PUSH3 0x5F3 PUSH3 0x6D8 JUMP JUMPDEST POP PUSH3 0x57B JUMP JUMPDEST POP PUSH1 0x20 DUP4 LT PUSH2 0x133 DUP4 LT AND PUSH1 0x4E DUP5 LT PUSH1 0xB DUP5 LT AND OR ISZERO PUSH3 0x632 JUMPI POP DUP2 DUP2 EXP DUP4 DUP2 GT ISZERO PUSH3 0x62C JUMPI PUSH3 0x62C PUSH3 0x6D8 JUMP JUMPDEST PUSH3 0x57B JUMP JUMPDEST PUSH3 0x641 DUP5 DUP5 DUP5 PUSH1 0x1 PUSH3 0x51A JUMP JUMPDEST DUP1 DUP7 DIV DUP3 GT ISZERO PUSH3 0x656 JUMPI PUSH3 0x656 PUSH3 0x6D8 JUMP JUMPDEST MUL SWAP5 SWAP4 POP POP POP POP JUMP JUMPDEST PUSH1 0x0 DUP2 PUSH1 0x0 NOT DIV DUP4 GT DUP3 ISZERO ISZERO AND ISZERO PUSH3 0x67C JUMPI PUSH3 0x67C PUSH3 0x6D8 JUMP JUMPDEST POP MUL SWAP1 JUMP JUMPDEST PUSH1 0x0 DUP3 DUP3 LT ISZERO PUSH3 0x696 JUMPI PUSH3 0x696 PUSH3 0x6D8 JUMP JUMPDEST POP SUB SWAP1 JUMP JUMPDEST PUSH1 0x2 DUP2 DIV PUSH1 0x1 DUP3 AND DUP1 PUSH3 0x6B0 JUMPI PUSH1 0x7F DUP3 AND SWAP2 POP JUMPDEST PUSH1 0x20 DUP3 LT DUP2 EQ ISZERO PUSH3 0x6D2 JUMPI PUSH4 0x4E487B71 PUSH1 0xE0 SHL PUSH1 0x0 MSTORE PUSH1 0x22 PUSH1 0x4 MSTORE PUSH1 0x24 PUSH1 0x0 REVERT JUMPDEST POP SWAP2 SWAP1 POP JUMP JUMPDEST PUSH4 0x4E487B71 PUSH1 0xE0 SHL PUSH1 0x0 MSTORE PUSH1 0x11 PUSH1 0x4 MSTORE PUSH1 0x24 PUSH1 0x0 REVERT JUMPDEST PUSH2 0x16E7 DUP1 PUSH3 0x6FE PUSH1 0x0 CODECOPY PUSH1 0x0 RETURN INVALID PUSH1 0x80 PUSH1 0x40 MSTORE CALLVALUE DUP1 ISZERO PUSH2 0x10 JUMPI PUSH1 0x0 DUP1 REVERT JUMPDEST POP PUSH1 0x4 CALLDATASIZE LT PUSH2 0x18E JUMPI PUSH1 0x0 CALLDATALOAD PUSH1 0xE0 SHR DUP1 PUSH4 0x70A08231 GT PUSH2 0xDE JUMPI DUP1 PUSH4 0x9711715A GT PUSH2 0x97 JUMPI DUP1 PUSH4 0xA457C2D7 GT PUSH2 0x71 JUMPI DUP1 PUSH4 0xA457C2D7 EQ PUSH2 0x314 JUMPI DUP1 PUSH4 0xA9059CBB EQ PUSH2 0x327 JUMPI DUP1 PUSH4 0xDD62ED3E EQ PUSH2 0x33A JUMPI DUP1 PUSH4 0xF2FDE38B EQ PUSH2 0x373 JUMPI PUSH2 0x18E JUMP JUMPDEST DUP1 PUSH4 0x9711715A EQ PUSH2 0x2E6 JUMPI DUP1 PUSH4 0x981B24D0 EQ PUSH2 0x2EE JUMPI DUP1 PUSH4 0xA1883D26 EQ PUSH2 0x301 JUMPI PUSH2 0x18E JUMP JUMPDEST DUP1 PUSH4 0x70A08231 EQ PUSH2 0x28D JUMPI DUP1 PUSH4 0x715018A6 EQ PUSH2 0x2A0 JUMPI DUP1 PUSH4 0x79CC6790 EQ PUSH2 0x2A8 JUMPI DUP1 PUSH4 0x8456CB59 EQ PUSH2 0x2BB JUMPI DUP1 PUSH4 0x8DA5CB5B EQ PUSH2 0x2C3 JUMPI DUP1 PUSH4 0x95D89B41 EQ PUSH2 0x2DE JUMPI PUSH2 0x18E JUMP JUMPDEST DUP1 PUSH4 0x39509351 GT PUSH2 0x14B JUMPI DUP1 PUSH4 0x40C10F19 GT PUSH2 0x125 JUMPI DUP1 PUSH4 0x40C10F19 EQ PUSH2 0x241 JUMPI DUP1 PUSH4 0x42966C68 EQ PUSH2 0x254 JUMPI DUP1 PUSH4 0x4EE2CD7E EQ PUSH2 0x267 JUMPI DUP1 PUSH4 0x5C975ABB EQ PUSH2 0x27A JUMPI PUSH2 0x18E JUMP JUMPDEST DUP1 PUSH4 0x39509351 EQ PUSH2 0x21D JUMPI DUP1 PUSH4 0x3B124FE7 EQ PUSH2 0x230 JUMPI DUP1 PUSH4 0x3F4BA83A EQ PUSH2 0x239 JUMPI PUSH2 0x18E JUMP JUMPDEST DUP1 PUSH4 0x61C82D0 EQ PUSH2 0x193 JUMPI DUP1 PUSH4 0x6FDDE03 EQ PUSH2 0x1A8 JUMPI DUP1 PUSH4 0x95EA7B3 EQ PUSH2 0x1C6 JUMPI DUP1 PUSH4 0x18160DDD EQ PUSH2 0x1E9 JUMPI DUP1 PUSH4 0x23B872DD EQ PUSH2 0x1FB JUMPI DUP1 PUSH4 0x313CE567 EQ PUSH2 0x20E JUMPI JUMPDEST PUSH1 0x0 DUP1 REVERT JUMPDEST PUSH2 0x1A6 PUSH2 0x1A1 CALLDATASIZE PUSH1 0x4 PUSH2 0x1528 JUMP JUMPDEST PUSH2 0x386 JUMP JUMPDEST STOP JUMPDEST PUSH2 0x1B0 PUSH2 0x3BE JUMP JUMPDEST PUSH1 0x40 MLOAD PUSH2 0x1BD SWAP2 SWAP1 PUSH2 0x1540 JUMP JUMPDEST PUSH1 0x40 MLOAD DUP1 SWAP2 SUB SWAP1 RETURN JUMPDEST PUSH2 0x1D9 PUSH2 0x1D4 CALLDATASIZE PUSH1 0x4 PUSH2 0x14FF JUMP JUMPDEST PUSH2 0x450 JUMP JUMPDEST PUSH1 0x40 MLOAD SWAP1 ISZERO ISZERO DUP2 MSTORE PUSH1 0x20 ADD PUSH2 0x1BD JUMP JUMPDEST PUSH1 0x2 SLOAD JUMPDEST PUSH1 0x40 MLOAD SWAP1 DUP2 MSTORE PUSH1 0x20 ADD PUSH2 0x1BD JUMP JUMPDEST PUSH2 0x1D9 PUSH2 0x209 CALLDATASIZE PUSH1 0x4 PUSH2 0x14C4 JUMP JUMPDEST PUSH2 0x467 JUMP JUMPDEST PUSH1 0x40 MLOAD PUSH1 0x12 DUP2 MSTORE PUSH1 0x20 ADD PUSH2 0x1BD JUMP JUMPDEST PUSH2 0x1D9 PUSH2 0x22B CALLDATASIZE PUSH1 0x4 PUSH2 0x14FF JUMP JUMPDEST PUSH2 0x511 JUMP JUMPDEST PUSH2 0x1ED PUSH1 0xA SLOAD DUP2 JUMP JUMPDEST PUSH2 0x1A6 PUSH2 0x54D JUMP JUMPDEST PUSH2 0x1A6 PUSH2 0x24F CALLDATASIZE PUSH1 0x4 PUSH2 0x14FF JUMP JUMPDEST PUSH2 0x581 JUMP JUMPDEST PUSH2 0x1A6 PUSH2 0x262 CALLDATASIZE PUSH1 0x4 PUSH2 0x1528 JUMP JUMPDEST PUSH2 0x5B9 JUMP JUMPDEST PUSH2 0x1ED PUSH2 0x275 CALLDATASIZE PUSH1 0x4 PUSH2 0x14FF JUMP JUMPDEST PUSH2 0x5C6 JUMP JUMPDEST PUSH2 0x1D9 PUSH1 0x9 SLOAD PUSH1 0x1 PUSH1 0xA0 SHL SWAP1 DIV PUSH1 0xFF AND SWAP1 JUMP JUMPDEST PUSH2 0x1ED PUSH2 0x29B CALLDATASIZE PUSH1 0x4 PUSH2 0x1478 JUMP JUMPDEST PUSH2 0x60F JUMP JUMPDEST PUSH2 0x1A6 PUSH2 0x62E JUMP JUMPDEST PUSH2 0x1A6 PUSH2 0x2B6 CALLDATASIZE PUSH1 0x4 PUSH2 0x14FF JUMP JUMPDEST PUSH2 0x662 JUMP JUMPDEST PUSH2 0x1A6 PUSH2 0x6E8 JUMP JUMPDEST PUSH1 0x9 SLOAD PUSH1 0x40 MLOAD PUSH1 0x1 PUSH1 0x1 PUSH1 0xA0 SHL SUB SWAP1 SWAP2 AND DUP2 MSTORE PUSH1 0x20 ADD PUSH2 0x1BD JUMP JUMPDEST PUSH2 0x1B0 PUSH2 0x71A JUMP JUMPDEST PUSH2 0x1A6 PUSH2 0x729 JUMP JUMPDEST PUSH2 0x1ED PUSH2 0x2FC CALLDATASIZE PUSH1 0x4 PUSH2 0x1528 JUMP JUMPDEST PUSH2 0x75B JUMP JUMPDEST PUSH2 0x1A6 PUSH2 0x30F CALLDATASIZE PUSH1 0x4 PUSH2 0x1478 JUMP JUMPDEST PUSH2 0x786 JUMP JUMPDEST PUSH2 0x1D9 PUSH2 0x322 CALLDATASIZE PUSH1 0x4 PUSH2 0x14FF JUMP JUMPDEST PUSH2 0x7D2 JUMP JUMPDEST PUSH2 0x1D9 PUSH2 0x335 CALLDATASIZE PUSH1 0x4 PUSH2 0x14FF JUMP JUMPDEST PUSH2 0x86B JUMP JUMPDEST PUSH2 0x1ED PUSH2 0x348 CALLDATASIZE PUSH1 0x4 PUSH2 0x1492 JUMP JUMPDEST PUSH1 0x1 PUSH1 0x1 PUSH1 0xA0 SHL SUB SWAP2 DUP3 AND PUSH1 0x0 SWAP1 DUP2 MSTORE PUSH1 0x1 PUSH1 0x20 SWAP1 DUP2 MSTORE PUSH1 0x40 DUP1 DUP4 KECCAK256 SWAP4 SWAP1 SWAP5 AND DUP3 MSTORE SWAP2 SWAP1 SWAP2 MSTORE KECCAK256 SLOAD SWAP1 JUMP JUMPDEST PUSH2 0x1A6 PUSH2 0x381 CALLDATASIZE PUSH1 0x4 PUSH2 0x1478 JUMP JUMPDEST PUSH2 0x878 JUMP JUMPDEST PUSH1 0x9 SLOAD PUSH1 0x1 PUSH1 0x1 PUSH1 0xA0 SHL SUB AND CALLER EQ PUSH2 0x3B9 JUMPI PUSH1 0x40 MLOAD PUSH3 0x461BCD PUSH1 0xE5 SHL DUP2 MSTORE PUSH1 0x4 ADD PUSH2 0x3B0 SWAP1 PUSH2 0x15BD JUMP JUMPDEST PUSH1 0x40 MLOAD DUP1 SWAP2 SUB SWAP1 REVERT JUMPDEST PUSH1 0xA SSTORE JUMP JUMPDEST PUSH1 0x60 PUSH1 0x3 DUP1 SLOAD PUSH2 0x3CD SWAP1 PUSH2 0x1660 JUMP JUMPDEST DUP1 PUSH1 0x1F ADD PUSH1 0x20 DUP1 SWAP2 DIV MUL PUSH1 0x20 ADD PUSH1 0x40 MLOAD SWAP1 DUP2 ADD PUSH1 0x40 MSTORE DUP1 SWAP3 SWAP2 SWAP1 DUP2 DUP2 MSTORE PUSH1 0x20 ADD DUP3 DUP1 SLOAD PUSH2 0x3F9 SWAP1 PUSH2 0x1660 JUMP JUMPDEST DUP1 ISZERO PUSH2 0x446 JUMPI DUP1 PUSH1 0x1F LT PUSH2 0x41B JUMPI PUSH2 0x100 DUP1 DUP4 SLOAD DIV MUL DUP4 MSTORE SWAP2 PUSH1 0x20 ADD SWAP2 PUSH2 0x446 JUMP JUMPDEST DUP3 ADD SWAP2 SWAP1 PUSH1 0x0 MSTORE PUSH1 0x20 PUSH1 0x0 KECCAK256 SWAP1 JUMPDEST DUP2 SLOAD DUP2 MSTORE SWAP1 PUSH1 0x1 ADD SWAP1 PUSH1 0x20 ADD DUP1 DUP4 GT PUSH2 0x429 JUMPI DUP3 SWAP1 SUB PUSH1 0x1F AND DUP3 ADD SWAP2 JUMPDEST POP POP POP POP POP SWAP1 POP SWAP1 JUMP JUMPDEST PUSH1 0x0 PUSH2 0x45D CALLER DUP5 DUP5 PUSH2 0x961 JUMP JUMPDEST POP PUSH1 0x1 JUMPDEST SWAP3 SWAP2 POP POP JUMP JUMPDEST PUSH1 0x0 PUSH2 0x474 DUP5 DUP5 DUP5 PUSH2 0xA85 JUMP JUMPDEST PUSH1 0x1 PUSH1 0x1 PUSH1 0xA0 SHL SUB DUP5 AND PUSH1 0x0 SWAP1 DUP2 MSTORE PUSH1 0x1 PUSH1 0x20 SWAP1 DUP2 MSTORE PUSH1 0x40 DUP1 DUP4 KECCAK256 CALLER DUP5 MSTORE SWAP1 SWAP2 MSTORE SWAP1 KECCAK256 SLOAD DUP3 DUP2 LT ISZERO PUSH2 0x4F9 JUMPI PUSH1 0x40 MLOAD PUSH3 0x461BCD PUSH1 0xE5 SHL DUP2 MSTORE PUSH1 0x20 PUSH1 0x4 DUP3 ADD MSTORE PUSH1 0x28 PUSH1 0x24 DUP3 ADD MSTORE PUSH32 0x45524332303A207472616E7366657220616D6F756E7420657863656564732061 PUSH1 0x44 DUP3 ADD MSTORE PUSH8 0x6C6C6F77616E6365 PUSH1 0xC0 SHL PUSH1 0x64 DUP3 ADD MSTORE PUSH1 0x84 ADD PUSH2 0x3B0 JUMP JUMPDEST PUSH2 0x506 DUP6 CALLER DUP6 DUP5 SUB PUSH2 0x961 JUMP JUMPDEST POP PUSH1 0x1 SWAP5 SWAP4 POP POP POP POP JUMP JUMPDEST CALLER PUSH1 0x0 DUP2 DUP2 MSTORE PUSH1 0x1 PUSH1 0x20 SWAP1 DUP2 MSTORE PUSH1 0x40 DUP1 DUP4 KECCAK256 PUSH1 0x1 PUSH1 0x1 PUSH1 0xA0 SHL SUB DUP8 AND DUP5 MSTORE SWAP1 SWAP2 MSTORE DUP2 KECCAK256 SLOAD SWAP1 SWAP2 PUSH2 0x45D SWAP2 DUP6 SWAP1 PUSH2 0x548 SWAP1 DUP7 SWAP1 PUSH2 0x15F2 JUMP JUMPDEST PUSH2 0x961 JUMP JUMPDEST PUSH1 0x9 SLOAD PUSH1 0x1 PUSH1 0x1 PUSH1 0xA0 SHL SUB AND CALLER EQ PUSH2 0x577 JUMPI PUSH1 0x40 MLOAD PUSH3 0x461BCD PUSH1 0xE5 SHL DUP2 MSTORE PUSH1 0x4 ADD PUSH2 0x3B0 SWAP1 PUSH2 0x15BD JUMP JUMPDEST PUSH2 0x57F PUSH2 0xB63 JUMP JUMPDEST JUMP JUMPDEST PUSH1 0x9 SLOAD PUSH1 0x1 PUSH1 0x1 PUSH1 0xA0 SHL SUB AND CALLER EQ PUSH2 0x5AB JUMPI PUSH1 0x40 MLOAD PUSH3 0x461BCD PUSH1 0xE5 SHL DUP2 MSTORE PUSH1 0x4 ADD PUSH2 0x3B0 SWAP1 PUSH2 0x15BD JUMP JUMPDEST PUSH2 0x5B5 DUP3 DUP3 PUSH2 0xC06 JUMP JUMPDEST POP POP JUMP JUMPDEST PUSH2 0x5C3 CALLER DUP3 PUSH2 0xCF2 JUMP JUMPDEST POP JUMP JUMPDEST PUSH1 0x1 PUSH1 0x1 PUSH1 0xA0 SHL SUB DUP3 AND PUSH1 0x0 SWAP1 DUP2 MSTORE PUSH1 0x5 PUSH1 0x20 MSTORE PUSH1 0x40 DUP2 KECCAK256 DUP2 SWAP1 DUP2 SWAP1 PUSH2 0x5ED SWAP1 DUP6 SWAP1 PUSH2 0xE4C JUMP JUMPDEST SWAP2 POP SWAP2 POP DUP2 PUSH2 0x604 JUMPI PUSH2 0x5FF DUP6 PUSH2 0x60F JUMP JUMPDEST PUSH2 0x606 JUMP JUMPDEST DUP1 JUMPDEST SWAP6 SWAP5 POP POP POP POP POP JUMP JUMPDEST PUSH1 0x1 PUSH1 0x1 PUSH1 0xA0 SHL SUB DUP2 AND PUSH1 0x0 SWAP1 DUP2 MSTORE PUSH1 0x20 DUP2 SWAP1 MSTORE PUSH1 0x40 SWAP1 KECCAK256 SLOAD JUMPDEST SWAP2 SWAP1 POP JUMP JUMPDEST PUSH1 0x9 SLOAD PUSH1 0x1 PUSH1 0x1 PUSH1 0xA0 SHL SUB AND CALLER EQ PUSH2 0x658 JUMPI PUSH1 0x40 MLOAD PUSH3 0x461BCD PUSH1 0xE5 SHL DUP2 MSTORE PUSH1 0x4 ADD PUSH2 0x3B0 SWAP1 PUSH2 0x15BD JUMP JUMPDEST PUSH2 0x57F PUSH1 0x0 PUSH2 0xF51 JUMP JUMPDEST PUSH1 0x0 PUSH2 0x66E DUP4 CALLER PUSH2 0x348 JUMP JUMPDEST SWAP1 POP DUP2 DUP2 LT ISZERO PUSH2 0x6CC JUMPI PUSH1 0x40 MLOAD PUSH3 0x461BCD PUSH1 0xE5 SHL DUP2 MSTORE PUSH1 0x20 PUSH1 0x4 DUP3 ADD MSTORE PUSH1 0x24 DUP1 DUP3 ADD MSTORE PUSH32 0x45524332303A206275726E20616D6F756E74206578636565647320616C6C6F77 PUSH1 0x44 DUP3 ADD MSTORE PUSH4 0x616E6365 PUSH1 0xE0 SHL PUSH1 0x64 DUP3 ADD MSTORE PUSH1 0x84 ADD PUSH2 0x3B0 JUMP JUMPDEST PUSH2 0x6D9 DUP4 CALLER DUP5 DUP5 SUB PUSH2 0x961 JUMP JUMPDEST PUSH2 0x6E3 DUP4 DUP4 PUSH2 0xCF2 JUMP JUMPDEST POP POP POP JUMP JUMPDEST PUSH1 0x9 SLOAD PUSH1 0x1 PUSH1 0x1 PUSH1 0xA0 SHL SUB AND CALLER EQ PUSH2 0x712 JUMPI PUSH1 0x40 MLOAD PUSH3 0x461BCD PUSH1 0xE5 SHL DUP2 MSTORE PUSH1 0x4 ADD PUSH2 0x3B0 SWAP1 PUSH2 0x15BD JUMP JUMPDEST PUSH2 0x57F PUSH2 0xFA3 JUMP JUMPDEST PUSH1 0x60 PUSH1 0x4 DUP1 SLOAD PUSH2 0x3CD SWAP1 PUSH2 0x1660 JUMP JUMPDEST PUSH1 0x9 SLOAD PUSH1 0x1 PUSH1 0x1 PUSH1 0xA0 SHL SUB AND CALLER EQ PUSH2 0x753 JUMPI PUSH1 0x40 MLOAD PUSH3 0x461BCD PUSH1 0xE5 SHL DUP2 MSTORE PUSH1 0x4 ADD PUSH2 0x3B0 SWAP1 PUSH2 0x15BD JUMP JUMPDEST PUSH2 0x5C3 PUSH2 0x100E JUMP JUMPDEST PUSH1 0x0 DUP1 PUSH1 0x0 PUSH2 0x76B DUP5 PUSH1 0x6 PUSH2 0xE4C JUMP JUMPDEST SWAP2 POP SWAP2 POP DUP2 PUSH2 0x77C JUMPI PUSH1 0x2 SLOAD PUSH2 0x77E JUMP JUMPDEST DUP1 JUMPDEST SWAP5 SWAP4 POP POP POP POP JUMP JUMPDEST PUSH1 0x9 SLOAD PUSH1 0x1 PUSH1 0x1 PUSH1 0xA0 SHL SUB AND CALLER EQ PUSH2 0x7B0 JUMPI PUSH1 0x40 MLOAD PUSH3 0x461BCD PUSH1 0xE5 SHL DUP2 MSTORE PUSH1 0x4 ADD PUSH2 0x3B0 SWAP1 PUSH2 0x15BD JUMP JUMPDEST PUSH1 0xB DUP1 SLOAD PUSH1 0x1 PUSH1 0x1 PUSH1 0xA0 SHL SUB NOT AND PUSH1 0x1 PUSH1 0x1 PUSH1 0xA0 SHL SUB SWAP3 SWAP1 SWAP3 AND SWAP2 SWAP1 SWAP2 OR SWAP1 SSTORE JUMP JUMPDEST CALLER PUSH1 0x0 SWAP1 DUP2 MSTORE PUSH1 0x1 PUSH1 0x20 SWAP1 DUP2 MSTORE PUSH1 0x40 DUP1 DUP4 KECCAK256 PUSH1 0x1 PUSH1 0x1 PUSH1 0xA0 SHL SUB DUP7 AND DUP5 MSTORE SWAP1 SWAP2 MSTORE DUP2 KECCAK256 SLOAD DUP3 DUP2 LT ISZERO PUSH2 0x854 JUMPI PUSH1 0x40 MLOAD PUSH3 0x461BCD PUSH1 0xE5 SHL DUP2 MSTORE PUSH1 0x20 PUSH1 0x4 DUP3 ADD MSTORE PUSH1 0x25 PUSH1 0x24 DUP3 ADD MSTORE PUSH32 0x45524332303A2064656372656173656420616C6C6F77616E63652062656C6F77 PUSH1 0x44 DUP3 ADD MSTORE PUSH5 0x207A65726F PUSH1 0xD8 SHL PUSH1 0x64 DUP3 ADD MSTORE PUSH1 0x84 ADD PUSH2 0x3B0 JUMP JUMPDEST PUSH2 0x861 CALLER DUP6 DUP6 DUP5 SUB PUSH2 0x961 JUMP JUMPDEST POP PUSH1 0x1 SWAP4 SWAP3 POP POP POP JUMP JUMPDEST PUSH1 0x0 PUSH2 0x45D CALLER DUP5 DUP5 PUSH2 0xA85 JUMP JUMPDEST PUSH1 0x9 SLOAD PUSH1 0x1 PUSH1 0x1 PUSH1 0xA0 SHL SUB AND CALLER EQ PUSH2 0x8A2 JUMPI PUSH1 0x40 MLOAD PUSH3 0x461BCD PUSH1 0xE5 SHL DUP2 MSTORE PUSH1 0x4 ADD PUSH2 0x3B0 SWAP1 PUSH2 0x15BD JUMP JUMPDEST PUSH1 0x1 PUSH1 0x1 PUSH1 0xA0 SHL SUB DUP2 AND PUSH2 0x907 JUMPI PUSH1 0x40 MLOAD PUSH3 0x461BCD PUSH1 0xE5 SHL DUP2 MSTORE PUSH1 0x20 PUSH1 0x4 DUP3 ADD MSTORE PUSH1 0x26 PUSH1 0x24 DUP3 ADD MSTORE PUSH32 0x4F776E61626C653A206E6577206F776E657220697320746865207A65726F2061 PUSH1 0x44 DUP3 ADD MSTORE PUSH6 0x646472657373 PUSH1 0xD0 SHL PUSH1 0x64 DUP3 ADD MSTORE PUSH1 0x84 ADD PUSH2 0x3B0 JUMP JUMPDEST PUSH2 0x5C3 DUP2 PUSH2 0xF51 JUMP JUMPDEST PUSH1 0x1 PUSH1 0x1 PUSH1 0xA0 SHL SUB DUP4 AND PUSH2 0x934 JUMPI PUSH2 0x927 DUP3 PUSH2 0x1068 JUMP JUMPDEST PUSH2 0x92F PUSH2 0x1092 JUMP JUMPDEST PUSH2 0x6E3 JUMP JUMPDEST PUSH1 0x1 PUSH1 0x1 PUSH1 0xA0 SHL SUB DUP3 AND PUSH2 0x94B JUMPI PUSH2 0x927 DUP4 PUSH2 0x1068 JUMP JUMPDEST PUSH2 0x954 DUP4 PUSH2 0x1068 JUMP JUMPDEST PUSH2 0x6E3 DUP3 PUSH2 0x1068 JUMP JUMPDEST SLOAD SWAP1 JUMP JUMPDEST PUSH1 0x1 PUSH1 0x1 PUSH1 0xA0 SHL SUB DUP4 AND PUSH2 0x9C3 JUMPI PUSH1 0x40 MLOAD PUSH3 0x461BCD PUSH1 0xE5 SHL DUP2 MSTORE PUSH1 0x20 PUSH1 0x4 DUP3 ADD MSTORE PUSH1 0x24 DUP1 DUP3 ADD MSTORE PUSH32 0x45524332303A20617070726F76652066726F6D20746865207A65726F20616464 PUSH1 0x44 DUP3 ADD MSTORE PUSH4 0x72657373 PUSH1 0xE0 SHL PUSH1 0x64 DUP3 ADD MSTORE PUSH1 0x84 ADD PUSH2 0x3B0 JUMP JUMPDEST PUSH1 0x1 PUSH1 0x1 PUSH1 0xA0 SHL SUB DUP3 AND PUSH2 0xA24 JUMPI PUSH1 0x40 MLOAD PUSH3 0x461BCD PUSH1 0xE5 SHL DUP2 MSTORE PUSH1 0x20 PUSH1 0x4 DUP3 ADD MSTORE PUSH1 0x22 PUSH1 0x24 DUP3 ADD MSTORE PUSH32 0x45524332303A20617070726F766520746F20746865207A65726F206164647265 PUSH1 0x44 DUP3 ADD MSTORE PUSH2 0x7373 PUSH1 0xF0 SHL PUSH1 0x64 DUP3 ADD MSTORE PUSH1 0x84 ADD PUSH2 0x3B0 JUMP JUMPDEST PUSH1 0x1 PUSH1 0x1 PUSH1 0xA0 SHL SUB DUP4 DUP2 AND PUSH1 0x0 DUP2 DUP2 MSTORE PUSH1 0x1 PUSH1 0x20 SWAP1 DUP2 MSTORE PUSH1 0x40 DUP1 DUP4 KECCAK256 SWAP5 DUP8 AND DUP1 DUP5 MSTORE SWAP5 DUP3 MSTORE SWAP2 DUP3 SWAP1 KECCAK256 DUP6 SWAP1 SSTORE SWAP1 MLOAD DUP5 DUP2 MSTORE PUSH32 0x8C5BE1E5EBEC7D5BD14F71427D1E84F3DD0314C0F7B2291E5B200AC8C7C3B925 SWAP2 ADD PUSH1 0x40 MLOAD DUP1 SWAP2 SUB SWAP1 LOG3 POP POP POP JUMP JUMPDEST PUSH2 0xA98 PUSH1 0x9 SLOAD PUSH1 0x1 PUSH1 0xA0 SHL SWAP1 DIV PUSH1 0xFF AND SWAP1 JUMP JUMPDEST ISZERO PUSH2 0xAB5 JUMPI PUSH1 0x40 MLOAD PUSH3 0x461BCD PUSH1 0xE5 SHL DUP2 MSTORE PUSH1 0x4 ADD PUSH2 0x3B0 SWAP1 PUSH2 0x1593 JUMP JUMPDEST PUSH1 0x0 PUSH1 0x64 PUSH1 0xA SLOAD DUP4 PUSH2 0xAC7 SWAP2 SWAP1 PUSH2 0x162A JUMP JUMPDEST PUSH2 0xAD1 SWAP2 SWAP1 PUSH2 0x160A JUMP JUMPDEST SWAP1 POP PUSH1 0x0 PUSH2 0xADF DUP3 DUP5 PUSH2 0x1649 JUMP JUMPDEST SWAP1 POP PUSH2 0xAEB DUP3 DUP3 PUSH2 0x15F2 JUMP JUMPDEST DUP4 EQ PUSH2 0xB39 JUMPI PUSH1 0x40 MLOAD PUSH3 0x461BCD PUSH1 0xE5 SHL DUP2 MSTORE PUSH1 0x20 PUSH1 0x4 DUP3 ADD MSTORE PUSH1 0x19 PUSH1 0x24 DUP3 ADD MSTORE PUSH32 0x7472616E736665723A205461782076616C20696E76616C696400000000000000 PUSH1 0x44 DUP3 ADD MSTORE PUSH1 0x64 ADD PUSH2 0x3B0 JUMP JUMPDEST PUSH1 0xB SLOAD PUSH2 0xB51 SWAP1 DUP7 SWAP1 PUSH1 0x1 PUSH1 0x1 PUSH1 0xA0 SHL SUB AND DUP5 PUSH2 0x10A0 JUMP JUMPDEST PUSH2 0xB5C DUP6 DUP6 DUP4 PUSH2 0x10A0 JUMP JUMPDEST POP POP POP POP POP JUMP JUMPDEST PUSH2 0xB76 PUSH1 0x9 SLOAD PUSH1 0x1 PUSH1 0xA0 SHL SWAP1 DIV PUSH1 0xFF AND SWAP1 JUMP JUMPDEST PUSH2 0xBB9 JUMPI PUSH1 0x40 MLOAD PUSH3 0x461BCD PUSH1 0xE5 SHL DUP2 MSTORE PUSH1 0x20 PUSH1 0x4 DUP3 ADD MSTORE PUSH1 0x14 PUSH1 0x24 DUP3 ADD MSTORE PUSH20 0x14185D5CD8589B194E881B9BDD081C185D5CD959 PUSH1 0x62 SHL PUSH1 0x44 DUP3 ADD MSTORE PUSH1 0x64 ADD PUSH2 0x3B0 JUMP JUMPDEST PUSH1 0x9 DUP1 SLOAD PUSH1 0xFF PUSH1 0xA0 SHL NOT AND SWAP1 SSTORE PUSH32 0x5DB9EE0A495BF2E6FF9C91A7834C1BA4FDD244A5E8AA4E537BD38AEAE4B073AA CALLER JUMPDEST PUSH1 0x40 MLOAD PUSH1 0x1 PUSH1 0x1 PUSH1 0xA0 SHL SUB SWAP1 SWAP2 AND DUP2 MSTORE PUSH1 0x20 ADD PUSH1 0x40 MLOAD DUP1 SWAP2 SUB SWAP1 LOG1 JUMP JUMPDEST PUSH1 0x1 PUSH1 0x1 PUSH1 0xA0 SHL SUB DUP3 AND PUSH2 0xC5C JUMPI PUSH1 0x40 MLOAD PUSH3 0x461BCD PUSH1 0xE5 SHL DUP2 MSTORE PUSH1 0x20 PUSH1 0x4 DUP3 ADD MSTORE PUSH1 0x1F PUSH1 0x24 DUP3 ADD MSTORE PUSH32 0x45524332303A206D696E7420746F20746865207A65726F206164647265737300 PUSH1 0x44 DUP3 ADD MSTORE PUSH1 0x64 ADD PUSH2 0x3B0 JUMP JUMPDEST PUSH2 0xC68 PUSH1 0x0 DUP4 DUP4 PUSH2 0x127A JUMP JUMPDEST DUP1 PUSH1 0x2 PUSH1 0x0 DUP3 DUP3 SLOAD PUSH2 0xC7A SWAP2 SWAP1 PUSH2 0x15F2 JUMP JUMPDEST SWAP1 SWAP2 SSTORE POP POP PUSH1 0x1 PUSH1 0x1 PUSH1 0xA0 SHL SUB DUP3 AND PUSH1 0x0 SWAP1 DUP2 MSTORE PUSH1 0x20 DUP2 SWAP1 MSTORE PUSH1 0x40 DUP2 KECCAK256 DUP1 SLOAD DUP4 SWAP3 SWAP1 PUSH2 0xCA7 SWAP1 DUP5 SWAP1 PUSH2 0x15F2 JUMP JUMPDEST SWAP1 SWAP2 SSTORE POP POP PUSH1 0x40 MLOAD DUP2 DUP2 MSTORE PUSH1 0x1 PUSH1 0x1 PUSH1 0xA0 SHL SUB DUP4 AND SWAP1 PUSH1 0x0 SWAP1 PUSH32 0xDDF252AD1BE2C89B69C2B068FC378DAA952BA7F163C4A11628F55A4DF523B3EF SWAP1 PUSH1 0x20 ADD PUSH1 0x40 MLOAD DUP1 SWAP2 SUB SWAP1 LOG3 PUSH2 0x5B5 JUMP JUMPDEST PUSH1 0x1 PUSH1 0x1 PUSH1 0xA0 SHL SUB DUP3 AND PUSH2 0xD52 JUMPI PUSH1 0x40 MLOAD PUSH3 0x461BCD PUSH1 0xE5 SHL DUP2 MSTORE PUSH1 0x20 PUSH1 0x4 DUP3 ADD MSTORE PUSH1 0x21 PUSH1 0x24 DUP3 ADD MSTORE PUSH32 0x45524332303A206275726E2066726F6D20746865207A65726F20616464726573 PUSH1 0x44 DUP3 ADD MSTORE PUSH1 0x73 PUSH1 0xF8 SHL PUSH1 0x64 DUP3 ADD MSTORE PUSH1 0x84 ADD PUSH2 0x3B0 JUMP JUMPDEST PUSH2 0xD5E DUP3 PUSH1 0x0 DUP4 PUSH2 0x127A JUMP JUMPDEST PUSH1 0x1 PUSH1 0x1 PUSH1 0xA0 SHL SUB DUP3 AND PUSH1 0x0 SWAP1 DUP2 MSTORE PUSH1 0x20 DUP2 SWAP1 MSTORE PUSH1 0x40 SWAP1 KECCAK256 SLOAD DUP2 DUP2 LT ISZERO PUSH2 0xDD2 JUMPI PUSH1 0x40 MLOAD PUSH3 0x461BCD PUSH1 0xE5 SHL DUP2 MSTORE PUSH1 0x20 PUSH1 0x4 DUP3 ADD MSTORE PUSH1 0x22 PUSH1 0x24 DUP3 ADD MSTORE PUSH32 0x45524332303A206275726E20616D6F756E7420657863656564732062616C616E PUSH1 0x44 DUP3 ADD MSTORE PUSH2 0x6365 PUSH1 0xF0 SHL PUSH1 0x64 DUP3 ADD MSTORE PUSH1 0x84 ADD PUSH2 0x3B0 JUMP JUMPDEST PUSH1 0x1 PUSH1 0x1 PUSH1 0xA0 SHL SUB DUP4 AND PUSH1 0x0 SWAP1 DUP2 MSTORE PUSH1 0x20 DUP2 SWAP1 MSTORE PUSH1 0x40 DUP2 KECCAK256 DUP4 DUP4 SUB SWAP1 SSTORE PUSH1 0x2 DUP1 SLOAD DUP5 SWAP3 SWAP1 PUSH2 0xE01 SWAP1 DUP5 SWAP1 PUSH2 0x1649 JUMP JUMPDEST SWAP1 SWAP2 SSTORE POP POP PUSH1 0x40 MLOAD DUP3 DUP2 MSTORE PUSH1 0x0 SWAP1 PUSH1 0x1 PUSH1 0x1 PUSH1 0xA0 SHL SUB DUP6 AND SWAP1 PUSH32 0xDDF252AD1BE2C89B69C2B068FC378DAA952BA7F163C4A11628F55A4DF523B3EF SWAP1 PUSH1 0x20 ADD PUSH1 0x40 MLOAD DUP1 SWAP2 SUB SWAP1 LOG3 PUSH2 0x6E3 JUMP JUMPDEST PUSH1 0x0 DUP1 PUSH1 0x0 DUP5 GT PUSH2 0xE98 JUMPI PUSH1 0x40 MLOAD PUSH3 0x461BCD PUSH1 0xE5 SHL DUP2 MSTORE PUSH1 0x20 PUSH1 0x4 DUP3 ADD MSTORE PUSH1 0x16 PUSH1 0x24 DUP3 ADD MSTORE PUSH22 0x4552433230536E617073686F743A206964206973203 PUSH1 0x54 SHL PUSH1 0x44 DUP3 ADD MSTORE PUSH1 0x64 ADD PUSH2 0x3B0 JUMP JUMPDEST PUSH2 0xEA0 PUSH2 0x12B5 JUMP JUMPDEST DUP5 GT ISZERO PUSH2 0xEEF JUMPI PUSH1 0x40 MLOAD PUSH3 0x461BCD PUSH1 0xE5 SHL DUP2 MSTORE PUSH1 0x20 PUSH1 0x4 DUP3 ADD MSTORE PUSH1 0x1D PUSH1 0x24 DUP3 ADD MSTORE PUSH32 0x4552433230536E617073686F743A206E6F6E6578697374656E74206964000000 PUSH1 0x44 DUP3 ADD MSTORE PUSH1 0x64 ADD PUSH2 0x3B0 JUMP JUMPDEST PUSH1 0x0 PUSH2 0xEFB DUP5 DUP7 PUSH2 0x12C5 JUMP JUMPDEST DUP5 SLOAD SWAP1 SWAP2 POP DUP2 EQ ISZERO PUSH2 0xF14 JUMPI PUSH1 0x0 DUP1 SWAP3 POP SWAP3 POP POP PUSH2 0xF4A JUMP JUMPDEST PUSH1 0x1 DUP5 PUSH1 0x1 ADD DUP3 DUP2 SLOAD DUP2 LT PUSH2 0xF39 JUMPI PUSH4 0x4E487B71 PUSH1 0xE0 SHL PUSH1 0x0 MSTORE PUSH1 0x32 PUSH1 0x4 MSTORE PUSH1 0x24 PUSH1 0x0 REVERT JUMPDEST SWAP1 PUSH1 0x0 MSTORE PUSH1 0x20 PUSH1 0x0 KECCAK256 ADD SLOAD SWAP3 POP SWAP3 POP POP JUMPDEST SWAP3 POP SWAP3 SWAP1 POP JUMP JUMPDEST PUSH1 0x9 DUP1 SLOAD PUSH1 0x1 PUSH1 0x1 PUSH1 0xA0 SHL SUB DUP4 DUP2 AND PUSH1 0x1 PUSH1 0x1 PUSH1 0xA0 SHL SUB NOT DUP4 AND DUP2 OR SWAP1 SWAP4 SSTORE PUSH1 0x40 MLOAD SWAP2 AND SWAP2 SWAP1 DUP3 SWAP1 PUSH32 0x8BE0079C531659141344CD1FD0A4F28419497F9722A3DAAFE3B4186F6B6457E0 SWAP1 PUSH1 0x0 SWAP1 LOG3 POP POP JUMP JUMPDEST PUSH2 0xFB6 PUSH1 0x9 SLOAD PUSH1 0x1 PUSH1 0xA0 SHL SWAP1 DIV PUSH1 0xFF AND SWAP1 JUMP JUMPDEST ISZERO PUSH2 0xFD3 JUMPI PUSH1 0x40 MLOAD PUSH3 0x461BCD PUSH1 0xE5 SHL DUP2 MSTORE PUSH1 0x4 ADD PUSH2 0x3B0 SWAP1 PUSH2 0x1593 JUMP JUMPDEST PUSH1 0x9 DUP1 SLOAD PUSH1 0xFF PUSH1 0xA0 SHL NOT AND PUSH1 0x1 PUSH1 0xA0 SHL OR SWAP1 SSTORE PUSH32 0x62E78CEA01BEE320CD4E420270B5EA74000D11B0C9F74754EBDBFC544B05A258 PUSH2 0xBE9 CALLER SWAP1 JUMP JUMPDEST PUSH1 0x0 PUSH2 0x101E PUSH1 0x8 DUP1 SLOAD PUSH1 0x1 ADD SWAP1 SSTORE JUMP JUMPDEST PUSH1 0x0 PUSH2 0x1028 PUSH2 0x12B5 JUMP JUMPDEST SWAP1 POP PUSH32 0x8030E83B04D87BEF53480E26263266D6CA66863AA8506ACA6F2559D18AA1CB67 DUP2 PUSH1 0x40 MLOAD PUSH2 0x105B SWAP2 DUP2 MSTORE PUSH1 0x20 ADD SWAP1 JUMP JUMPDEST PUSH1 0x40 MLOAD DUP1 SWAP2 SUB SWAP1 LOG1 SWAP1 POP SWAP1 JUMP JUMPDEST PUSH1 0x1 PUSH1 0x1 PUSH1 0xA0 SHL SUB DUP2 AND PUSH1 0x0 SWAP1 DUP2 MSTORE PUSH1 0x5 PUSH1 0x20 MSTORE PUSH1 0x40 SWAP1 KECCAK256 PUSH2 0x5C3 SWAP1 PUSH2 0x108D DUP4 PUSH2 0x60F JUMP JUMPDEST PUSH2 0x13A4 JUMP JUMPDEST PUSH2 0x57F PUSH1 0x6 PUSH2 0x108D PUSH1 0x2 SLOAD SWAP1 JUMP JUMPDEST PUSH1 0x1 PUSH1 0x1 PUSH1 0xA0 SHL SUB DUP4 AND PUSH2 0x1104 JUMPI PUSH1 0x40 MLOAD PUSH3 0x461BCD PUSH1 0xE5 SHL DUP2 MSTORE PUSH1 0x20 PUSH1 0x4 DUP3 ADD MSTORE PUSH1 0x25 PUSH1 0x24 DUP3 ADD MSTORE PUSH32 0x45524332303A207472616E736665722066726F6D20746865207A65726F206164 PUSH1 0x44 DUP3 ADD MSTORE PUSH5 0x6472657373 PUSH1 0xD8 SHL PUSH1 0x64 DUP3 ADD MSTORE PUSH1 0x84 ADD PUSH2 0x3B0 JUMP JUMPDEST PUSH1 0x1 PUSH1 0x1 PUSH1 0xA0 SHL SUB DUP3 AND PUSH2 0x1166 JUMPI PUSH1 0x40 MLOAD PUSH3 0x461BCD PUSH1 0xE5 SHL DUP2 MSTORE PUSH1 0x20 PUSH1 0x4 DUP3 ADD MSTORE PUSH1 0x23 PUSH1 0x24 DUP3 ADD MSTORE PUSH32 0x45524332303A207472616E7366657220746F20746865207A65726F2061646472 PUSH1 0x44 DUP3 ADD MSTORE PUSH3 0x657373 PUSH1 0xE8 SHL PUSH1 0x64 DUP3 ADD MSTORE PUSH1 0x84 ADD PUSH2 0x3B0 JUMP JUMPDEST PUSH2 0x1171 DUP4 DUP4 DUP4 PUSH2 0x127A JUMP JUMPDEST PUSH1 0x1 PUSH1 0x1 PUSH1 0xA0 SHL SUB DUP4 AND PUSH1 0x0 SWAP1 DUP2 MSTORE PUSH1 0x20 DUP2 SWAP1 MSTORE PUSH1 0x40 SWAP1 KECCAK256 SLOAD DUP2 DUP2 LT ISZERO PUSH2 0x11E9 JUMPI PUSH1 0x40 MLOAD PUSH3 0x461BCD PUSH1 0xE5 SHL DUP2 MSTORE PUSH1 0x20 PUSH1 0x4 DUP3 ADD MSTORE PUSH1 0x26 PUSH1 0x24 DUP3 ADD MSTORE PUSH32 0x45524332303A207472616E7366657220616D6F756E7420657863656564732062 PUSH1 0x44 DUP3 ADD MSTORE PUSH6 0x616C616E6365 PUSH1 0xD0 SHL PUSH1 0x64 DUP3 ADD MSTORE PUSH1 0x84 ADD PUSH2 0x3B0 JUMP JUMPDEST PUSH1 0x1 PUSH1 0x1 PUSH1 0xA0 SHL SUB DUP1 DUP6 AND PUSH1 0x0 SWAP1 DUP2 MSTORE PUSH1 0x20 DUP2 SWAP1 MSTORE PUSH1 0x40 DUP1 DUP3 KECCAK256 DUP6 DUP6 SUB SWAP1 SSTORE SWAP2 DUP6 AND DUP2 MSTORE SWAP1 DUP2 KECCAK256 DUP1 SLOAD DUP5 SWAP3 SWAP1 PUSH2 0x1220 SWAP1 DUP5 SWAP1 PUSH2 0x15F2 JUMP JUMPDEST SWAP3 POP POP DUP2 SWAP1 SSTORE POP DUP3 PUSH1 0x1 PUSH1 0x1 PUSH1 0xA0 SHL SUB AND DUP5 PUSH1 0x1 PUSH1 0x1 PUSH1 0xA0 SHL SUB AND PUSH32 0xDDF252AD1BE2C89B69C2B068FC378DAA952BA7F163C4A11628F55A4DF523B3EF DUP5 PUSH1 0x40 MLOAD PUSH2 0x126C SWAP2 DUP2 MSTORE PUSH1 0x20 ADD SWAP1 JUMP JUMPDEST PUSH1 0x40 MLOAD DUP1 SWAP2 SUB SWAP1 LOG3 POP POP POP POP JUMP JUMPDEST PUSH2 0x128D PUSH1 0x9 SLOAD PUSH1 0x1 PUSH1 0xA0 SHL SWAP1 DIV PUSH1 0xFF AND SWAP1 JUMP JUMPDEST ISZERO PUSH2 0x12AA JUMPI PUSH1 0x40 MLOAD PUSH3 0x461BCD PUSH1 0xE5 SHL DUP2 MSTORE PUSH1 0x4 ADD PUSH2 0x3B0 SWAP1 PUSH2 0x1593 JUMP JUMPDEST PUSH2 0x6E3 DUP4 DUP4 DUP4 PUSH2 0x910 JUMP JUMPDEST PUSH1 0x0 PUSH2 0x12C0 PUSH1 0x8 SLOAD SWAP1 JUMP JUMPDEST SWAP1 POP SWAP1 JUMP JUMPDEST DUP2 SLOAD PUSH1 0x0 SWAP1 PUSH2 0x12D6 JUMPI POP PUSH1 0x0 PUSH2 0x461 JUMP JUMPDEST DUP3 SLOAD PUSH1 0x0 SWAP1 JUMPDEST DUP1 DUP3 LT ISZERO PUSH2 0x1340 JUMPI PUSH1 0x0 PUSH2 0x12F0 DUP4 DUP4 PUSH2 0x13EE JUMP JUMPDEST SWAP1 POP DUP5 DUP7 DUP3 DUP2 SLOAD DUP2 LT PUSH2 0x1313 JUMPI PUSH4 0x4E487B71 PUSH1 0xE0 SHL PUSH1 0x0 MSTORE PUSH1 0x32 PUSH1 0x4 MSTORE PUSH1 0x24 PUSH1 0x0 REVERT JUMPDEST SWAP1 PUSH1 0x0 MSTORE PUSH1 0x20 PUSH1 0x0 KECCAK256 ADD SLOAD GT ISZERO PUSH2 0x132C JUMPI DUP1 SWAP2 POP PUSH2 0x133A JUMP JUMPDEST PUSH2 0x1337 DUP2 PUSH1 0x1 PUSH2 0x15F2 JUMP JUMPDEST SWAP3 POP JUMPDEST POP PUSH2 0x12DC JUMP JUMPDEST PUSH1 0x0 DUP3 GT DUP1 ISZERO PUSH2 0x1383 JUMPI POP DUP4 DUP6 PUSH2 0x1358 PUSH1 0x1 DUP6 PUSH2 0x1649 JUMP JUMPDEST DUP2 SLOAD DUP2 LT PUSH2 0x1376 JUMPI PUSH4 0x4E487B71 PUSH1 0xE0 SHL PUSH1 0x0 MSTORE PUSH1 0x32 PUSH1 0x4 MSTORE PUSH1 0x24 PUSH1 0x0 REVERT JUMPDEST SWAP1 PUSH1 0x0 MSTORE PUSH1 0x20 PUSH1 0x0 KECCAK256 ADD SLOAD EQ JUMPDEST ISZERO PUSH2 0x139C JUMPI PUSH2 0x1393 PUSH1 0x1 DUP4 PUSH2 0x1649 JUMP JUMPDEST SWAP3 POP POP POP PUSH2 0x461 JUMP JUMPDEST POP SWAP1 POP PUSH2 0x461 JUMP JUMPDEST PUSH1 0x0 PUSH2 0x13AE PUSH2 0x12B5 JUMP JUMPDEST SWAP1 POP DUP1 PUSH2 0x13BA DUP5 PUSH2 0x1410 JUMP JUMPDEST LT ISZERO PUSH2 0x6E3 JUMPI DUP3 SLOAD PUSH1 0x1 DUP1 DUP3 ADD DUP6 SSTORE PUSH1 0x0 DUP6 DUP2 MSTORE PUSH1 0x20 DUP1 DUP3 KECCAK256 SWAP1 SWAP4 ADD SWAP4 SWAP1 SWAP4 SSTORE SWAP4 DUP5 ADD DUP1 SLOAD SWAP5 DUP6 ADD DUP2 SSTORE DUP3 MSTORE SWAP1 KECCAK256 SWAP1 SWAP2 ADD SSTORE JUMP JUMPDEST PUSH1 0x0 PUSH2 0x13FD PUSH1 0x2 DUP5 DUP5 XOR PUSH2 0x160A JUMP JUMPDEST PUSH2 0x1409 SWAP1 DUP5 DUP5 AND PUSH2 0x15F2 JUMP JUMPDEST SWAP4 SWAP3 POP POP POP JUMP JUMPDEST DUP1 SLOAD PUSH1 0x0 SWAP1 PUSH2 0x1421 JUMPI POP PUSH1 0x0 PUSH2 0x629 JUMP JUMPDEST DUP2 SLOAD DUP3 SWAP1 PUSH2 0x1431 SWAP1 PUSH1 0x1 SWAP1 PUSH2 0x1649 JUMP JUMPDEST DUP2 SLOAD DUP2 LT PUSH2 0x144F JUMPI PUSH4 0x4E487B71 PUSH1 0xE0 SHL PUSH1 0x0 MSTORE PUSH1 0x32 PUSH1 0x4 MSTORE PUSH1 0x24 PUSH1 0x0 REVERT JUMPDEST SWAP1 PUSH1 0x0 MSTORE PUSH1 0x20 PUSH1 0x0 KECCAK256 ADD SLOAD SWAP1 POP PUSH2 0x629 JUMP JUMPDEST DUP1 CALLDATALOAD PUSH1 0x1 PUSH1 0x1 PUSH1 0xA0 SHL SUB DUP2 AND DUP2 EQ PUSH2 0x629 JUMPI PUSH1 0x0 DUP1 REVERT JUMPDEST PUSH1 0x0 PUSH1 0x20 DUP3 DUP5 SUB SLT ISZERO PUSH2 0x1489 JUMPI DUP1 DUP2 REVERT JUMPDEST PUSH2 0x1409 DUP3 PUSH2 0x1461 JUMP JUMPDEST PUSH1 0x0 DUP1 PUSH1 0x40 DUP4 DUP6 SUB SLT ISZERO PUSH2 0x14A4 JUMPI DUP1 DUP2 REVERT JUMPDEST PUSH2 0x14AD DUP4 PUSH2 0x1461 JUMP JUMPDEST SWAP2 POP PUSH2 0x14BB PUSH1 0x20 DUP5 ADD PUSH2 0x1461 JUMP JUMPDEST SWAP1 POP SWAP3 POP SWAP3 SWAP1 POP JUMP JUMPDEST PUSH1 0x0 DUP1 PUSH1 0x0 PUSH1 0x60 DUP5 DUP7 SUB SLT ISZERO PUSH2 0x14D8 JUMPI DUP1 DUP2 REVERT JUMPDEST PUSH2 0x14E1 DUP5 PUSH2 0x1461 JUMP JUMPDEST SWAP3 POP PUSH2 0x14EF PUSH1 0x20 DUP6 ADD PUSH2 0x1461 JUMP JUMPDEST SWAP2 POP PUSH1 0x40 DUP5 ADD CALLDATALOAD SWAP1 POP SWAP3 POP SWAP3 POP SWAP3 JUMP JUMPDEST PUSH1 0x0 DUP1 PUSH1 0x40 DUP4 DUP6 SUB SLT ISZERO PUSH2 0x1511 JUMPI DUP2 DUP3 REVERT JUMPDEST PUSH2 0x151A DUP4 PUSH2 0x1461 JUMP JUMPDEST SWAP5 PUSH1 0x20 SWAP4 SWAP1 SWAP4 ADD CALLDATALOAD SWAP4 POP POP POP JUMP JUMPDEST PUSH1 0x0 PUSH1 0x20 DUP3 DUP5 SUB SLT ISZERO PUSH2 0x1539 JUMPI DUP1 DUP2 REVERT JUMPDEST POP CALLDATALOAD SWAP2 SWAP1 POP JUMP JUMPDEST PUSH1 0x0 PUSH1 0x20 DUP1 DUP4 MSTORE DUP4 MLOAD DUP1 DUP3 DUP6 ADD MSTORE DUP3 JUMPDEST DUP2 DUP2 LT ISZERO PUSH2 0x156C JUMPI DUP6 DUP2 ADD DUP4 ADD MLOAD DUP6 DUP3 ADD PUSH1 0x40 ADD MSTORE DUP3 ADD PUSH2 0x1550 JUMP JUMPDEST DUP2 DUP2 GT ISZERO PUSH2 0x157D JUMPI DUP4 PUSH1 0x40 DUP4 DUP8 ADD ADD MSTORE JUMPDEST POP PUSH1 0x1F ADD PUSH1 0x1F NOT AND SWAP3 SWAP1 SWAP3 ADD PUSH1 0x40 ADD SWAP4 SWAP3 POP POP POP JUMP JUMPDEST PUSH1 0x20 DUP1 DUP3 MSTORE PUSH1 0x10 SWAP1 DUP3 ADD MSTORE PUSH16 0x14185D5CD8589B194E881C185D5CD959 PUSH1 0x82 SHL PUSH1 0x40 DUP3 ADD MSTORE PUSH1 0x60 ADD SWAP1 JUMP JUMPDEST PUSH1 0x20 DUP1 DUP3 MSTORE DUP2 DUP2 ADD MSTORE PUSH32 0x4F776E61626C653A2063616C6C6572206973206E6F7420746865206F776E6572 PUSH1 0x40 DUP3 ADD MSTORE PUSH1 0x60 ADD SWAP1 JUMP JUMPDEST PUSH1 0x0 DUP3 NOT DUP3 GT ISZERO PUSH2 0x1605 JUMPI PUSH2 0x1605 PUSH2 0x169B JUMP JUMPDEST POP ADD SWAP1 JUMP JUMPDEST PUSH1 0x0 DUP3 PUSH2 0x1625 JUMPI PUSH4 0x4E487B71 PUSH1 0xE0 SHL DUP2 MSTORE PUSH1 0x12 PUSH1 0x4 MSTORE PUSH1 0x24 DUP2 REVERT JUMPDEST POP DIV SWAP1 JUMP JUMPDEST PUSH1 0x0 DUP2 PUSH1 0x0 NOT DIV DUP4 GT DUP3 ISZERO ISZERO AND ISZERO PUSH2 0x1644 JUMPI PUSH2 0x1644 PUSH2 0x169B JUMP JUMPDEST POP MUL SWAP1 JUMP JUMPDEST PUSH1 0x0 DUP3 DUP3 LT ISZERO PUSH2 0x165B JUMPI PUSH2 0x165B PUSH2 0x169B JUMP JUMPDEST POP SUB SWAP1 JUMP JUMPDEST PUSH1 0x2 DUP2 DIV PUSH1 0x1 DUP3 AND DUP1 PUSH2 0x1674 JUMPI PUSH1 0x7F DUP3 AND SWAP2 POP JUMPDEST PUSH1 0x20 DUP3 LT DUP2 EQ ISZERO PUSH2 0x1695 JUMPI PUSH4 0x4E487B71 PUSH1 0xE0 SHL PUSH1 0x0 MSTORE PUSH1 0x22 PUSH1 0x4 MSTORE PUSH1 0x24 PUSH1 0x0 REVERT JUMPDEST POP SWAP2 SWAP1 POP JUMP JUMPDEST PUSH4 0x4E487B71 PUSH1 0xE0 SHL PUSH1 0x0 MSTORE PUSH1 0x11 PUSH1 0x4 MSTORE PUSH1 0x24 PUSH1 0x0 REVERT INVALID LOG2 PUSH5 0x6970667358 0x22 SLT KECCAK256 0xB9 0xF8 RETURN MOD 0xCF CHAINID 0xDE ADD PUSH2 0x6D6 ORIGIN PC PUSH29 0x4E175DE2D68D08C260B09273DDEE47E5A2A064736F6C63430008020033 "
        },
        "methodIdentifiers": {
          "_taxFee()": "3b124fe7",
          "allowance(address,address)": "dd62ed3e",
          "approve(address,uint256)": "095ea7b3",
          "balanceOf(address)": "70a08231",
          "balanceOfAt(address,uint256)": "4ee2cd7e",
          "burn(uint256)": "42966c68",
          "burnFrom(address,uint256)": "79cc6790",
          "decimals()": "313ce567",
          "decreaseAllowance(address,uint256)": "a457c2d7",
          "increaseAllowance(address,uint256)": "39509351",
          "mint(address,uint256)": "40c10f19",
          "name()": "06fdde03",
          "owner()": "8da5cb5b",
          "pause()": "8456cb59",
          "paused()": "5c975abb",
          "renounceOwnership()": "715018a6",
          "setTaxAddress(address)": "a1883d26",
          "setTaxFeePercent(uint256)": "061c82d0",
          "snapshot()": "9711715a",
          "symbol()": "95d89b41",
          "totalSupply()": "18160ddd",
          "totalSupplyAt(uint256)": "981b24d0",
          "transfer(address,uint256)": "a9059cbb",
          "transferFrom(address,address,uint256)": "23b872dd",
          "transferOwnership(address)": "f2fde38b",
          "unpause()": "3f4ba83a"
        }
      }
    }
  }
}