{
  "_format": "hh-sol-artifact-1",
  "contractName": "HorseToken",
  "sourceName": "contracts/DefiHorse.sol",
  "abi": [
    {
      "inputs": [],
      "stateMutability": "nonpayable",
      "type": "constructor"
    },
    {
      "anonymous": false,
      "inputs": [
        {
          "indexed": true,
          "internalType": "address",
          "name": "owner",
          "type": "address"
        },
        {
          "indexed": true,
          "internalType": "address",
          "name": "spender",
          "type": "address"
        },
        {
          "indexed": false,
          "internalType": "uint256",
          "name": "value",
          "type": "uint256"
        }
      ],
      "name": "Approval",
      "type": "event"
    },
    {
      "anonymous": false,
      "inputs": [
        {
          "indexed": true,
          "internalType": "address",
          "name": "previousOwner",
          "type": "address"
        },
        {
          "indexed": true,
          "internalType": "address",
          "name": "newOwner",
          "type": "address"
        }
      ],
      "name": "OwnershipTransferred",
      "type": "event"
    },
    {
      "anonymous": false,
      "inputs": [
        {
          "indexed": false,
          "internalType": "address",
          "name": "account",
          "type": "address"
        }
      ],
      "name": "Paused",
      "type": "event"
    },
    {
      "anonymous": false,
      "inputs": [
        {
          "indexed": false,
          "internalType": "uint256",
          "name": "id",
          "type": "uint256"
        }
      ],
      "name": "Snapshot",
      "type": "event"
    },
    {
      "anonymous": false,
      "inputs": [
        {
          "indexed": true,
          "internalType": "address",
          "name": "from",
          "type": "address"
        },
        {
          "indexed": true,
          "internalType": "address",
          "name": "to",
          "type": "address"
        },
        {
          "indexed": false,
          "internalType": "uint256",
          "name": "value",
          "type": "uint256"
        }
      ],
      "name": "Transfer",
      "type": "event"
    },
    {
      "anonymous": false,
      "inputs": [
        {
          "indexed": false,
          "internalType": "address",
          "name": "account",
          "type": "address"
        }
      ],
      "name": "Unpaused",
      "type": "event"
    },
    {
      "inputs": [],
      "name": "_taxFee",
      "outputs": [
        {
          "internalType": "uint256",
          "name": "",
          "type": "uint256"
        }
      ],
      "stateMutability": "view",
      "type": "function"
    },
    {
      "inputs": [
        {
          "internalType": "address",
          "name": "owner",
          "type": "address"
        },
        {
          "internalType": "address",
          "name": "spender",
          "type": "address"
        }
      ],
      "name": "allowance",
      "outputs": [
        {
          "internalType": "uint256",
          "name": "",
          "type": "uint256"
        }
      ],
      "stateMutability": "view",
      "type": "function"
    },
    {
      "inputs": [
        {
          "internalType": "address",
          "name": "spender",
          "type": "address"
        },
        {
          "internalType": "uint256",
          "name": "amount",
          "type": "uint256"
        }
      ],
      "name": "approve",
      "outputs": [
        {
          "internalType": "bool",
          "name": "",
          "type": "bool"
        }
      ],
      "stateMutability": "nonpayable",
      "type": "function"
    },
    {
      "inputs": [
        {
          "internalType": "address",
          "name": "account",
          "type": "address"
        }
      ],
      "name": "balanceOf",
      "outputs": [
        {
          "internalType": "uint256",
          "name": "",
          "type": "uint256"
        }
      ],
      "stateMutability": "view",
      "type": "function"
    },
    {
      "inputs": [
        {
          "internalType": "address",
          "name": "account",
          "type": "address"
        },
        {
          "internalType": "uint256",
          "name": "snapshotId",
          "type": "uint256"
        }
      ],
      "name": "balanceOfAt",
      "outputs": [
        {
          "internalType": "uint256",
          "name": "",
          "type": "uint256"
        }
      ],
      "stateMutability": "view",
      "type": "function"
    },
    {
      "inputs": [
        {
          "internalType": "uint256",
          "name": "amount",
          "type": "uint256"
        }
      ],
      "name": "burn",
      "outputs": [],
      "stateMutability": "nonpayable",
      "type": "function"
    },
    {
      "inputs": [
        {
          "internalType": "address",
          "name": "account",
          "type": "address"
        },
        {
          "internalType": "uint256",
          "name": "amount",
          "type": "uint256"
        }
      ],
      "name": "burnFrom",
      "outputs": [],
      "stateMutability": "nonpayable",
      "type": "function"
    },
    {
      "inputs": [],
      "name": "decimals",
      "outputs": [
        {
          "internalType": "uint8",
          "name": "",
          "type": "uint8"
        }
      ],
      "stateMutability": "view",
      "type": "function"
    },
    {
      "inputs": [
        {
          "internalType": "address",
          "name": "spender",
          "type": "address"
        },
        {
          "internalType": "uint256",
          "name": "subtractedValue",
          "type": "uint256"
        }
      ],
      "name": "decreaseAllowance",
      "outputs": [
        {
          "internalType": "bool",
          "name": "",
          "type": "bool"
        }
      ],
      "stateMutability": "nonpayable",
      "type": "function"
    },
    {
      "inputs": [
        {
          "internalType": "address",
          "name": "spender",
          "type": "address"
        },
        {
          "internalType": "uint256",
          "name": "addedValue",
          "type": "uint256"
        }
      ],
      "name": "increaseAllowance",
      "outputs": [
        {
          "internalType": "bool",
          "name": "",
          "type": "bool"
        }
      ],
      "stateMutability": "nonpayable",
      "type": "function"
    },
    {
      "inputs": [
        {
          "internalType": "address",
          "name": "to",
          "type": "address"
        },
        {
          "internalType": "uint256",
          "name": "amount",
          "type": "uint256"
        }
      ],
      "name": "mint",
      "outputs": [],
      "stateMutability": "nonpayable",
      "type": "function"
    },
    {
      "inputs": [],
      "name": "name",
      "outputs": [
        {
          "internalType": "string",
          "name": "",
          "type": "string"
        }
      ],
      "stateMutability": "view",
      "type": "function"
    },
    {
      "inputs": [],
      "name": "owner",
      "outputs": [
        {
          "internalType": "address",
          "name": "",
          "type": "address"
        }
      ],
      "stateMutability": "view",
      "type": "function"
    },
    {
      "inputs": [],
      "name": "pause",
      "outputs": [],
      "stateMutability": "nonpayable",
      "type": "function"
    },
    {
      "inputs": [],
      "name": "paused",
      "outputs": [
        {
          "internalType": "bool",
          "name": "",
          "type": "bool"
        }
      ],
      "stateMutability": "view",
      "type": "function"
    },
    {
      "inputs": [],
      "name": "renounceOwnership",
      "outputs": [],
      "stateMutability": "nonpayable",
      "type": "function"
    },
    {
      "inputs": [
        {
          "internalType": "address",
          "name": "taxAddress",
          "type": "address"
        }
      ],
      "name": "setTaxAddress",
      "outputs": [],
      "stateMutability": "nonpayable",
      "type": "function"
    },
    {
      "inputs": [
        {
          "internalType": "uint256",
          "name": "taxFee",
          "type": "uint256"
        }
      ],
      "name": "setTaxFeePercent",
      "outputs": [],
      "stateMutability": "nonpayable",
      "type": "function"
    },
    {
      "inputs": [],
      "name": "snapshot",
      "outputs": [],
      "stateMutability": "nonpayable",
      "type": "function"
    },
    {
      "inputs": [],
      "name": "symbol",
      "outputs": [
        {
          "internalType": "string",
          "name": "",
          "type": "string"
        }
      ],
      "stateMutability": "view",
      "type": "function"
    },
    {
      "inputs": [],
      "name": "totalSupply",
      "outputs": [
        {
          "internalType": "uint256",
          "name": "",
          "type": "uint256"
        }
      ],
      "stateMutability": "view",
      "type": "function"
    },
    {
      "inputs": [
        {
          "internalType": "uint256",
          "name": "snapshotId",
          "type": "uint256"
        }
      ],
      "name": "totalSupplyAt",
      "outputs": [
        {
          "internalType": "uint256",
          "name": "",
          "type": "uint256"
        }
      ],
      "stateMutability": "view",
      "type": "function"
    },
    {
      "inputs": [
        {
          "internalType": "address",
          "name": "recipient",
          "type": "address"
        },
        {
          "internalType": "uint256",
          "name": "amount",
          "type": "uint256"
        }
      ],
      "name": "transfer",
      "outputs": [
        {
          "internalType": "bool",
          "name": "",
          "type": "bool"
        }
      ],
      "stateMutability": "nonpayable",
      "type": "function"
    },
    {
      "inputs": [
        {
          "internalType": "address",
          "name": "sender",
          "type": "address"
        },
        {
          "internalType": "address",
          "name": "recipient",
          "type": "address"
        },
        {
          "internalType": "uint256",
          "name": "amount",
          "type": "uint256"
        }
      ],
      "name": "transferFrom",
      "outputs": [
        {
          "internalType": "bool",
          "name": "",
          "type": "bool"
        }
      ],
      "stateMutability": "nonpayable",
      "type": "function"
    },
    {
      "inputs": [
        {
          "internalType": "address",
          "name": "newOwner",
          "type": "address"
        }
      ],
      "name": "transferOwnership",
      "outputs": [],
      "stateMutability": "nonpayable",
      "type": "function"
    },
    {
      "inputs": [],
      "name": "unpause",
      "outputs": [],
      "stateMutability": "nonpayable",
      "type": "function"
    }
  ],
  "bytecode": "0x60806040526001600a55600b80546001600160a01b0319167393a364bca26f754dabf95fc5ac3cb62196b655901790553480156200003c57600080fd5b506040518060400160405280600981526020016844656669486f72736560b81b815250604051806040016040528060038152602001620888c960eb1b81525081600390805190602001906200009392919062000459565b508051620000a990600490602084019062000459565b505050620000c6620000c06200010260201b60201c565b62000106565b6009805460ff60a01b19169055620000fc33620000e66012600a62000567565b620000f6906327d0df006200065f565b62000158565b620006ee565b3390565b600980546001600160a01b038381166001600160a01b0319831681179093556040519116919082907f8be0079c531659141344cd1fd0a4f28419497f9722a3daafe3b4186f6b6457e090600090a35050565b6001600160a01b038216620001b45760405162461bcd60e51b815260206004820152601f60248201527f45524332303a206d696e7420746f20746865207a65726f20616464726573730060448201526064015b60405180910390fd5b620001c2600083836200024f565b8060026000828254620001d69190620004ff565b90915550506001600160a01b0382166000908152602081905260408120805483929062000205908490620004ff565b90915550506040518181526001600160a01b038316906000907fddf252ad1be2c89b69c2b068fc378daa952ba7f163c4a11628f55a4df523b3ef9060200160405180910390a35050565b62000263600954600160a01b900460ff1690565b15620002a55760405162461bcd60e51b815260206004820152601060248201526f14185d5cd8589b194e881c185d5cd95960821b6044820152606401620001ab565b620002bd838383620002c260201b620009101760201c565b505050565b620002da838383620002bd60201b620006e31760201c565b6001600160a01b0383166200030457620002f4826200032f565b620002fe62000360565b620002bd565b6001600160a01b0382166200031e57620002f4836200032f565b62000329836200032f565b620002bd825b6001600160a01b03811660009081526005602052604090206200035d90620003578362000372565b62000391565b50565b6200037060066200035760025490565b565b6001600160a01b0381166000908152602081905260409020545b919050565b60006200039d620003e0565b905080620003ab84620003fe565b1015620002bd578254600180820185556000858152602080822090930193909355938401805494850181558252902090910155565b6000620003f960086200045560201b6200095d1760201c565b905090565b805460009062000411575060006200038c565b81548290620004239060019062000681565b815481106200044257634e487b7160e01b600052603260045260246000fd5b906000526020600020015490506200038c565b5490565b82805462000467906200069b565b90600052602060002090601f0160209004810192826200048b5760008555620004d6565b82601f10620004a657805160ff1916838001178555620004d6565b82800160010185558215620004d6579182015b82811115620004d6578251825591602001919060010190620004b9565b50620004e4929150620004e8565b5090565b5b80821115620004e45760008155600101620004e9565b60008219821115620005155762000515620006d8565b500190565b80825b60018086116200052e57506200055e565b818704821115620005435762000543620006d8565b808616156200055157918102915b9490941c9380026200051d565b94509492505050565b60006200057b60001960ff85168462000582565b9392505050565b60008262000593575060016200057b565b81620005a2575060006200057b565b8160018114620005bb5760028114620005c657620005fa565b60019150506200057b565b60ff841115620005da57620005da620006d8565b6001841b915084821115620005f357620005f3620006d8565b506200057b565b5060208310610133831016604e8410600b841016171562000632575081810a838111156200062c576200062c620006d8565b6200057b565b6200064184848460016200051a565b808604821115620006565762000656620006d8565b02949350505050565b60008160001904831182151516156200067c576200067c620006d8565b500290565b600082821015620006965762000696620006d8565b500390565b600281046001821680620006b057607f821691505b60208210811415620006d257634e487b7160e01b600052602260045260246000fd5b50919050565b634e487b7160e01b600052601160045260246000fd5b6116e780620006fe6000396000f3fe608060405234801561001057600080fd5b506004361061018e5760003560e01c806370a08231116100de5780639711715a11610097578063a457c2d711610071578063a457c2d714610314578063a9059cbb14610327578063dd62ed3e1461033a578063f2fde38b146103735761018e565b80639711715a146102e6578063981b24d0146102ee578063a1883d26146103015761018e565b806370a082311461028d578063715018a6146102a057806379cc6790146102a85780638456cb59146102bb5780638da5cb5b146102c357806395d89b41146102de5761018e565b8063395093511161014b57806340c10f191161012557806340c10f191461024157806342966c68146102545780634ee2cd7e146102675780635c975abb1461027a5761018e565b8063395093511461021d5780633b124fe7146102305780633f4ba83a146102395761018e565b8063061c82d01461019357806306fdde03146101a8578063095ea7b3146101c657806318160ddd146101e957806323b872dd146101fb578063313ce5671461020e575b600080fd5b6101a66101a1366004611528565b610386565b005b6101b06103be565b6040516101bd9190611540565b60405180910390f35b6101d96101d43660046114ff565b610450565b60405190151581526020016101bd565b6002545b6040519081526020016101bd565b6101d96102093660046114c4565b610467565b604051601281526020016101bd565b6101d961022b3660046114ff565b610511565b6101ed600a5481565b6101a661054d565b6101a661024f3660046114ff565b610581565b6101a6610262366004611528565b6105b9565b6101ed6102753660046114ff565b6105c6565b6101d9600954600160a01b900460ff1690565b6101ed61029b366004611478565b61060f565b6101a661062e565b6101a66102b63660046114ff565b610662565b6101a66106e8565b6009546040516001600160a01b0390911681526020016101bd565b6101b061071a565b6101a6610729565b6101ed6102fc366004611528565b61075b565b6101a661030f366004611478565b610786565b6101d96103223660046114ff565b6107d2565b6101d96103353660046114ff565b61086b565b6101ed610348366004611492565b6001600160a01b03918216600090815260016020908152604080832093909416825291909152205490565b6101a6610381366004611478565b610878565b6009546001600160a01b031633146103b95760405162461bcd60e51b81526004016103b0906115bd565b60405180910390fd5b600a55565b6060600380546103cd90611660565b80601f01602080910402602001604051908101604052809291908181526020018280546103f990611660565b80156104465780601f1061041b57610100808354040283529160200191610446565b820191906000526020600020905b81548152906001019060200180831161042957829003601f168201915b5050505050905090565b600061045d338484610961565b5060015b92915050565b6000610474848484610a85565b6001600160a01b0384166000908152600160209081526040808320338452909152902054828110156104f95760405162461bcd60e51b815260206004820152602860248201527f45524332303a207472616e7366657220616d6f756e74206578636565647320616044820152676c6c6f77616e636560c01b60648201526084016103b0565b6105068533858403610961565b506001949350505050565b3360008181526001602090815260408083206001600160a01b0387168452909152812054909161045d9185906105489086906115f2565b610961565b6009546001600160a01b031633146105775760405162461bcd60e51b81526004016103b0906115bd565b61057f610b63565b565b6009546001600160a01b031633146105ab5760405162461bcd60e51b81526004016103b0906115bd565b6105b58282610c06565b5050565b6105c33382610cf2565b50565b6001600160a01b0382166000908152600560205260408120819081906105ed908590610e4c565b9150915081610604576105ff8561060f565b610606565b805b95945050505050565b6001600160a01b0381166000908152602081905260409020545b919050565b6009546001600160a01b031633146106585760405162461bcd60e51b81526004016103b0906115bd565b61057f6000610f51565b600061066e8333610348565b9050818110156106cc5760405162461bcd60e51b8152602060048201526024808201527f45524332303a206275726e20616d6f756e74206578636565647320616c6c6f77604482015263616e636560e01b60648201526084016103b0565b6106d98333848403610961565b6106e38383610cf2565b505050565b6009546001600160a01b031633146107125760405162461bcd60e51b81526004016103b0906115bd565b61057f610fa3565b6060600480546103cd90611660565b6009546001600160a01b031633146107535760405162461bcd60e51b81526004016103b0906115bd565b6105c361100e565b600080600061076b846006610e4c565b915091508161077c5760025461077e565b805b949350505050565b6009546001600160a01b031633146107b05760405162461bcd60e51b81526004016103b0906115bd565b600b80546001600160a01b0319166001600160a01b0392909216919091179055565b3360009081526001602090815260408083206001600160a01b0386168452909152812054828110156108545760405162461bcd60e51b815260206004820152602560248201527f45524332303a2064656372656173656420616c6c6f77616e63652062656c6f77604482015264207a65726f60d81b60648201526084016103b0565b6108613385858403610961565b5060019392505050565b600061045d338484610a85565b6009546001600160a01b031633146108a25760405162461bcd60e51b81526004016103b0906115bd565b6001600160a01b0381166109075760405162461bcd60e51b815260206004820152602660248201527f4f776e61626c653a206e6577206f776e657220697320746865207a65726f206160448201526564647265737360d01b60648201526084016103b0565b6105c381610f51565b6001600160a01b0383166109345761092782611068565b61092f611092565b6106e3565b6001600160a01b03821661094b5761092783611068565b61095483611068565b6106e382611068565b5490565b6001600160a01b0383166109c35760405162461bcd60e51b8152602060048201526024808201527f45524332303a20617070726f76652066726f6d20746865207a65726f206164646044820152637265737360e01b60648201526084016103b0565b6001600160a01b038216610a245760405162461bcd60e51b815260206004820152602260248201527f45524332303a20617070726f766520746f20746865207a65726f206164647265604482015261737360f01b60648201526084016103b0565b6001600160a01b0383811660008181526001602090815260408083209487168084529482529182902085905590518481527f8c5be1e5ebec7d5bd14f71427d1e84f3dd0314c0f7b2291e5b200ac8c7c3b925910160405180910390a3505050565b610a98600954600160a01b900460ff1690565b15610ab55760405162461bcd60e51b81526004016103b090611593565b60006064600a5483610ac7919061162a565b610ad1919061160a565b90506000610adf8284611649565b9050610aeb82826115f2565b8314610b395760405162461bcd60e51b815260206004820152601960248201527f7472616e736665723a205461782076616c20696e76616c69640000000000000060448201526064016103b0565b600b54610b519086906001600160a01b0316846110a0565b610b5c8585836110a0565b5050505050565b610b76600954600160a01b900460ff1690565b610bb95760405162461bcd60e51b815260206004820152601460248201527314185d5cd8589b194e881b9bdd081c185d5cd95960621b60448201526064016103b0565b6009805460ff60a01b191690557f5db9ee0a495bf2e6ff9c91a7834c1ba4fdd244a5e8aa4e537bd38aeae4b073aa335b6040516001600160a01b03909116815260200160405180910390a1565b6001600160a01b038216610c5c5760405162461bcd60e51b815260206004820152601f60248201527f45524332303a206d696e7420746f20746865207a65726f20616464726573730060448201526064016103b0565b610c686000838361127a565b8060026000828254610c7a91906115f2565b90915550506001600160a01b03821660009081526020819052604081208054839290610ca79084906115f2565b90915550506040518181526001600160a01b038316906000907fddf252ad1be2c89b69c2b068fc378daa952ba7f163c4a11628f55a4df523b3ef9060200160405180910390a36105b5565b6001600160a01b038216610d525760405162461bcd60e51b815260206004820152602160248201527f45524332303a206275726e2066726f6d20746865207a65726f206164647265736044820152607360f81b60648201526084016103b0565b610d5e8260008361127a565b6001600160a01b03821660009081526020819052604090205481811015610dd25760405162461bcd60e51b815260206004820152602260248201527f45524332303a206275726e20616d6f756e7420657863656564732062616c616e604482015261636560f01b60648201526084016103b0565b6001600160a01b0383166000908152602081905260408120838303905560028054849290610e01908490611649565b90915550506040518281526000906001600160a01b038516907fddf252ad1be2c89b69c2b068fc378daa952ba7f163c4a11628f55a4df523b3ef9060200160405180910390a36106e3565b60008060008411610e985760405162461bcd60e51b815260206004820152601660248201527504552433230536e617073686f743a20696420697320360541b60448201526064016103b0565b610ea06112b5565b841115610eef5760405162461bcd60e51b815260206004820152601d60248201527f4552433230536e617073686f743a206e6f6e6578697374656e7420696400000060448201526064016103b0565b6000610efb84866112c5565b8454909150811415610f14576000809250925050610f4a565b6001846001018281548110610f3957634e487b7160e01b600052603260045260246000fd5b906000526020600020015492509250505b9250929050565b600980546001600160a01b038381166001600160a01b0319831681179093556040519116919082907f8be0079c531659141344cd1fd0a4f28419497f9722a3daafe3b4186f6b6457e090600090a35050565b610fb6600954600160a01b900460ff1690565b15610fd35760405162461bcd60e51b81526004016103b090611593565b6009805460ff60a01b1916600160a01b1790557f62e78cea01bee320cd4e420270b5ea74000d11b0c9f74754ebdbfc544b05a258610be93390565b600061101e600880546001019055565b60006110286112b5565b90507f8030e83b04d87bef53480e26263266d6ca66863aa8506aca6f2559d18aa1cb678160405161105b91815260200190565b60405180910390a1905090565b6001600160a01b03811660009081526005602052604090206105c39061108d8361060f565b6113a4565b61057f600661108d60025490565b6001600160a01b0383166111045760405162461bcd60e51b815260206004820152602560248201527f45524332303a207472616e736665722066726f6d20746865207a65726f206164604482015264647265737360d81b60648201526084016103b0565b6001600160a01b0382166111665760405162461bcd60e51b815260206004820152602360248201527f45524332303a207472616e7366657220746f20746865207a65726f206164647260448201526265737360e81b60648201526084016103b0565b61117183838361127a565b6001600160a01b038316600090815260208190526040902054818110156111e95760405162461bcd60e51b815260206004820152602660248201527f45524332303a207472616e7366657220616d6f756e7420657863656564732062604482015265616c616e636560d01b60648201526084016103b0565b6001600160a01b038085166000908152602081905260408082208585039055918516815290812080548492906112209084906115f2565b92505081905550826001600160a01b0316846001600160a01b03167fddf252ad1be2c89b69c2b068fc378daa952ba7f163c4a11628f55a4df523b3ef8460405161126c91815260200190565b60405180910390a350505050565b61128d600954600160a01b900460ff1690565b156112aa5760405162461bcd60e51b81526004016103b090611593565b6106e3838383610910565b60006112c060085490565b905090565b81546000906112d657506000610461565b82546000905b808210156113405760006112f083836113ee565b90508486828154811061131357634e487b7160e01b600052603260045260246000fd5b9060005260206000200154111561132c5780915061133a565b6113378160016115f2565b92505b506112dc565b60008211801561138357508385611358600185611649565b8154811061137657634e487b7160e01b600052603260045260246000fd5b9060005260206000200154145b1561139c57611393600183611649565b92505050610461565b509050610461565b60006113ae6112b5565b9050806113ba84611410565b10156106e3578254600180820185556000858152602080822090930193909355938401805494850181558252902090910155565b60006113fd600284841861160a565b611409908484166115f2565b9392505050565b805460009061142157506000610629565b8154829061143190600190611649565b8154811061144f57634e487b7160e01b600052603260045260246000fd5b90600052602060002001549050610629565b80356001600160a01b038116811461062957600080fd5b600060208284031215611489578081fd5b61140982611461565b600080604083850312156114a4578081fd5b6114ad83611461565b91506114bb60208401611461565b90509250929050565b6000806000606084860312156114d8578081fd5b6114e184611461565b92506114ef60208501611461565b9150604084013590509250925092565b60008060408385031215611511578182fd5b61151a83611461565b946020939093013593505050565b600060208284031215611539578081fd5b5035919050565b6000602080835283518082850152825b8181101561156c57858101830151858201604001528201611550565b8181111561157d5783604083870101525b50601f01601f1916929092016040019392505050565b60208082526010908201526f14185d5cd8589b194e881c185d5cd95960821b604082015260600190565b6020808252818101527f4f776e61626c653a2063616c6c6572206973206e6f7420746865206f776e6572604082015260600190565b600082198211156116055761160561169b565b500190565b60008261162557634e487b7160e01b81526012600452602481fd5b500490565b60008160001904831182151516156116445761164461169b565b500290565b60008282101561165b5761165b61169b565b500390565b60028104600182168061167457607f821691505b6020821081141561169557634e487b7160e01b600052602260045260246000fd5b50919050565b634e487b7160e01b600052601160045260246000fdfea2646970667358221220b9f8f306cf46de016106d632587c4e175de2d68d08c260b09273ddee47e5a2a064736f6c63430008020033",
  "linkReferences": {},
  "deployedLinkReferences": {}
}